{
  "contracts/TimeOracleFileLocker.sol": {
    "TimeOracleFileLocker": {
      "abi": [
        {
          "anonymous": false,
          "inputs": [
            {
              "indexed": true,
              "internalType": "bytes32",
              "name": "fileId",
              "type": "bytes32"
            },
            {
              "indexed": true,
              "internalType": "address",
              "name": "owner",
              "type": "address"
            },
            {
              "indexed": true,
              "internalType": "address",
              "name": "recipient",
              "type": "address"
            },
            {
              "indexed": false,
              "internalType": "string",
              "name": "ipfsHash",
              "type": "string"
            },
            {
              "indexed": false,
              "internalType": "uint256",
              "name": "unlockTimestamp",
              "type": "uint256"
            },
            {
              "indexed": false,
              "internalType": "uint256",
              "name": "lockFee",
              "type": "uint256"
            }
          ],
          "name": "FileLocked",
          "type": "event"
        },
        {
          "anonymous": false,
          "inputs": [
            {
              "indexed": true,
              "internalType": "bytes32",
              "name": "fileId",
              "type": "bytes32"
            },
            {
              "indexed": true,
              "internalType": "address",
              "name": "owner",
              "type": "address"
            }
          ],
          "name": "FileUnlocked",
          "type": "event"
        },
        {
          "anonymous": false,
          "inputs": [
            {
              "indexed": true,
              "internalType": "bytes32",
              "name": "fileId",
              "type": "bytes32"
            },
            {
              "indexed": true,
              "internalType": "address",
              "name": "owner",
              "type": "address"
            },
            {
              "indexed": false,
              "internalType": "string",
              "name": "rollupAddress",
              "type": "string"
            },
            {
              "indexed": false,
              "internalType": "uint256",
              "name": "unlockTimestamp",
              "type": "uint256"
            }
          ],
          "name": "UnlockRequested",
          "type": "event"
        },
        {
          "inputs": [
            {
              "internalType": "bytes32",
              "name": "fileId",
              "type": "bytes32"
            }
          ],
          "name": "confirmUnlock",
          "outputs": [],
          "stateMutability": "payable",
          "type": "function"
        },
        {
          "inputs": [
            {
              "internalType": "address",
              "name": "user",
              "type": "address"
            }
          ],
          "name": "getAllUserFiles",
          "outputs": [
            {
              "internalType": "bytes32[]",
              "name": "",
              "type": "bytes32[]"
            }
          ],
          "stateMutability": "view",
          "type": "function"
        },
        {
          "inputs": [
            {
              "internalType": "bytes32",
              "name": "fileId",
              "type": "bytes32"
            }
          ],
          "name": "getFileInfo",
          "outputs": [
            {
              "internalType": "string",
              "name": "ipfsHash",
              "type": "string"
            },
            {
              "internalType": "string",
              "name": "fileName",
              "type": "string"
            },
            {
              "internalType": "uint256",
              "name": "unlockTimestamp",
              "type": "uint256"
            },
            {
              "internalType": "address",
              "name": "owner",
              "type": "address"
            },
            {
              "internalType": "address",
              "name": "recipient",
              "type": "address"
            },
            {
              "internalType": "uint256",
              "name": "lockFee",
              "type": "uint256"
            },
            {
              "internalType": "bool",
              "name": "isUnlocked",
              "type": "bool"
            }
          ],
          "stateMutability": "view",
          "type": "function"
        },
        {
          "inputs": [
            {
              "internalType": "address",
              "name": "recipient",
              "type": "address"
            }
          ],
          "name": "getRecipientFiles",
          "outputs": [
            {
              "internalType": "bytes32[]",
              "name": "",
              "type": "bytes32[]"
            }
          ],
          "stateMutability": "view",
          "type": "function"
        },
        {
          "inputs": [
            {
              "internalType": "address",
              "name": "user",
              "type": "address"
            }
          ],
          "name": "getUserFiles",
          "outputs": [
            {
              "internalType": "bytes32[]",
              "name": "",
              "type": "bytes32[]"
            }
          ],
          "stateMutability": "view",
          "type": "function"
        },
        {
          "inputs": [
            {
              "internalType": "string",
              "name": "ipfsHash",
              "type": "string"
            },
            {
              "internalType": "string",
              "name": "fileName",
              "type": "string"
            },
            {
              "internalType": "uint256",
              "name": "unlockTimestamp",
              "type": "uint256"
            },
            {
              "internalType": "address",
              "name": "recipient",
              "type": "address"
            }
          ],
          "name": "lockFile",
          "outputs": [
            {
              "internalType": "bytes32",
              "name": "fileId",
              "type": "bytes32"
            }
          ],
          "stateMutability": "payable",
          "type": "function"
        },
        {
          "inputs": [
            {
              "internalType": "bytes32",
              "name": "",
              "type": "bytes32"
            }
          ],
          "name": "lockedFiles",
          "outputs": [
            {
              "internalType": "string",
              "name": "ipfsHash",
              "type": "string"
            },
            {
              "internalType": "string",
              "name": "fileName",
              "type": "string"
            },
            {
              "internalType": "uint256",
              "name": "unlockTimestamp",
              "type": "uint256"
            },
            {
              "internalType": "address",
              "name": "owner",
              "type": "address"
            },
            {
              "internalType": "address",
              "name": "recipient",
              "type": "address"
            },
            {
              "internalType": "uint256",
              "name": "lockFee",
              "type": "uint256"
            },
            {
              "internalType": "bool",
              "name": "isUnlocked",
              "type": "bool"
            },
            {
              "internalType": "bool",
              "name": "exists",
              "type": "bool"
            }
          ],
          "stateMutability": "view",
          "type": "function"
        },
        {
          "inputs": [
            {
              "internalType": "address",
              "name": "",
              "type": "address"
            },
            {
              "internalType": "uint256",
              "name": "",
              "type": "uint256"
            }
          ],
          "name": "recipientFiles",
          "outputs": [
            {
              "internalType": "bytes32",
              "name": "",
              "type": "bytes32"
            }
          ],
          "stateMutability": "view",
          "type": "function"
        },
        {
          "inputs": [
            {
              "internalType": "bytes32",
              "name": "fileId",
              "type": "bytes32"
            }
          ],
          "name": "requestUnlock",
          "outputs": [],
          "stateMutability": "nonpayable",
          "type": "function"
        },
        {
          "inputs": [],
          "name": "rollupAddress",
          "outputs": [
            {
              "internalType": "string",
              "name": "",
              "type": "string"
            }
          ],
          "stateMutability": "view",
          "type": "function"
        },
        {
          "inputs": [
            {
              "internalType": "address",
              "name": "",
              "type": "address"
            },
            {
              "internalType": "uint256",
              "name": "",
              "type": "uint256"
            }
          ],
          "name": "userFiles",
          "outputs": [
            {
              "internalType": "bytes32",
              "name": "",
              "type": "bytes32"
            }
          ],
          "stateMutability": "view",
          "type": "function"
        }
      ],
      "evm": {
        "bytecode": {
          "linkReferences": {},
          "object": "60806040526040518060600160405280602481526020016200292860249139600390816200002e9190620002bd565b503480156200003c57600080fd5b50620003a4565b600081519050919050565b7f4e487b7100000000000000000000000000000000000000000000000000000000600052604160045260246000fd5b7f4e487b7100000000000000000000000000000000000000000000000000000000600052602260045260246000fd5b60006002820490506001821680620000c557607f821691505b602082108103620000db57620000da6200007d565b5b50919050565b60008190508160005260206000209050919050565b60006020601f8301049050919050565b600082821b905092915050565b600060088302620001457fffffffffffffffffffffffffffffffffffffffffffffffffffffffffffffffff8262000106565b62000151868362000106565b95508019841693508086168417925050509392505050565b6000819050919050565b6000819050919050565b60006200019e62000198620001928462000169565b62000173565b62000169565b9050919050565b6000819050919050565b620001ba836200017d565b620001d2620001c982620001a5565b84845462000113565b825550505050565b600090565b620001e9620001da565b620001f6818484620001af565b505050565b5b818110156200021e5762000212600082620001df565b600181019050620001fc565b5050565b601f8211156200026d576200023781620000e1565b6200024284620000f6565b8101602085101562000252578190505b6200026a6200026185620000f6565b830182620001fb565b50505b505050565b600082821c905092915050565b6000620002926000198460080262000272565b1980831691505092915050565b6000620002ad83836200027f565b9150826002028217905092915050565b620002c88262000043565b67ffffffffffffffff811115620002e457620002e36200004e565b5b620002f08254620000ac565b620002fd82828562000222565b600060209050601f83116001811462000335576000841562000320578287015190505b6200032c85826200029f565b8655506200039c565b601f1984166200034586620000e1565b60005b828110156200036f5784890151825560018201915060208501945060208101905062000348565b868310156200038f57848901516200038b601f8916826200027f565b8355505b6001600288020188555050505b505050505050565b61257480620003b46000396000f3fe60806040526004361061009c5760003560e01c8063554b3c2011610064578063554b3c20146101c45780635ec6a8df14610208578063718f38a614610233578063d1d9079414610270578063d6c87288146102a0578063e55317b9146102dd5761009c565b806303d83328146100a1578063177f42f5146100ca57806318fa50a7146101075780631fc379221461014457806352f7347b14610181575b600080fd5b3480156100ad57600080fd5b506100c860048036038101906100c39190611536565b6102f9565b005b3480156100d657600080fd5b506100f160048036038101906100ec91906115c1565b6104f8565b6040516100fe91906116ac565b60405180910390f35b34801561011357600080fd5b5061012e600480360381019061012991906115c1565b610749565b60405161013b91906116ac565b60405180910390f35b34801561015057600080fd5b5061016b600480360381019061016691906115c1565b6107e0565b60405161017891906116ac565b60405180910390f35b34801561018d57600080fd5b506101a860048036038101906101a39190611536565b610877565b6040516101bb97969594939291906117a1565b60405180910390f35b3480156101d057600080fd5b506101eb60048036038101906101e69190611536565b610a88565b6040516101ff98979695949392919061181e565b60405180910390f35b34801561021457600080fd5b5061021d610c3a565b60405161022a91906118aa565b60405180910390f35b34801561023f57600080fd5b5061025a600480360381019061025591906118f8565b610cc8565b6040516102679190611947565b60405180910390f35b61028a60048036038101906102859190611a97565b610cf9565b6040516102979190611947565b60405180910390f35b3480156102ac57600080fd5b506102c760048036038101906102c291906118f8565b6111d7565b6040516102d49190611947565b60405180910390f35b6102f760048036038101906102f29190611536565b611208565b005b600080600083815260200190815260200160002090508060060160019054906101000a900460ff16610360576040517f08c379a000000000000000000000000000000000000000000000000000000000815260040161035790611b82565b60405180910390fd5b3373ffffffffffffffffffffffffffffffffffffffff168160030160009054906101000a900473ffffffffffffffffffffffffffffffffffffffff1673ffffffffffffffffffffffffffffffffffffffff16148061040d57503373ffffffffffffffffffffffffffffffffffffffff168160040160009054906101000a900473ffffffffffffffffffffffffffffffffffffffff1673ffffffffffffffffffffffffffffffffffffffff16145b61044c576040517f08c379a000000000000000000000000000000000000000000000000000000000815260040161044390611c14565b60405180910390fd5b8060060160009054906101000a900460ff161561049e576040517f08c379a000000000000000000000000000000000000000000000000000000000815260040161049590611c80565b60405180910390fd5b3373ffffffffffffffffffffffffffffffffffffffff16827fc39f7730afe58e8228d760343fcef8d51db91ba1f8bd9fa853bfbf510b3393e1600384600201546040516104ec929190611d99565b60405180910390a35050565b60606000600160008473ffffffffffffffffffffffffffffffffffffffff1673ffffffffffffffffffffffffffffffffffffffff16815260200190815260200160002080548060200260200160405190810160405280929190818152602001828054801561058557602002820191906000526020600020905b815481526020019060010190808311610571575b505050505090506000600260008573ffffffffffffffffffffffffffffffffffffffff1673ffffffffffffffffffffffffffffffffffffffff16815260200190815260200160002080548060200260200160405190810160405280929190818152602001828054801561061757602002820191906000526020600020905b815481526020019060010190808311610603575b5050505050905060008151835161062e9190611df8565b67ffffffffffffffff8111156106475761064661196c565b5b6040519080825280602002602001820160405280156106755781602001602082028036833780820191505090505b5090506000805b84518110156106da5784818151811061069857610697611e2c565b5b60200260200101518383815181106106b3576106b2611e2c565b5b60200260200101818152505081806106ca90611e5b565b925050808060010191505061067c565b5060005b835181101561073c578381815181106106fa576106f9611e2c565b5b602002602001015183838151811061071557610714611e2c565b5b602002602001018181525050818061072c90611e5b565b92505080806001019150506106de565b5081945050505050919050565b6060600260008373ffffffffffffffffffffffffffffffffffffffff1673ffffffffffffffffffffffffffffffffffffffff1681526020019081526020016000208054806020026020016040519081016040528092919081815260200182805480156107d457602002820191906000526020600020905b8154815260200190600101908083116107c0575b50505050509050919050565b6060600160008373ffffffffffffffffffffffffffffffffffffffff1673ffffffffffffffffffffffffffffffffffffffff16815260200190815260200160002080548060200260200160405190810160405280929190818152602001828054801561086b57602002820191906000526020600020905b815481526020019060010190808311610857575b50505050509050919050565b6060806000806000806000806000808a815260200190815260200160002090508060060160019054906101000a900460ff166108e8576040517f08c379a00000000000000000000000000000000000000000000000000000000081526004016108df90611b82565b60405180910390fd5b806000018160010182600201548360030160009054906101000a900473ffffffffffffffffffffffffffffffffffffffff168460040160009054906101000a900473ffffffffffffffffffffffffffffffffffffffff1685600501548660060160009054906101000a900460ff1686805461096290611ccf565b80601f016020809104026020016040519081016040528092919081815260200182805461098e90611ccf565b80156109db5780601f106109b0576101008083540402835291602001916109db565b820191906000526020600020905b8154815290600101906020018083116109be57829003601f168201915b505050505096508580546109ee90611ccf565b80601f0160208091040260200160405190810160405280929190818152602001828054610a1a90611ccf565b8015610a675780601f10610a3c57610100808354040283529160200191610a67565b820191906000526020600020905b815481529060010190602001808311610a4a57829003601f168201915b50505050509550975097509750975097509750975050919395979092949650565b6000602052806000526040600020600091509050806000018054610aab90611ccf565b80601f0160208091040260200160405190810160405280929190818152602001828054610ad790611ccf565b8015610b245780601f10610af957610100808354040283529160200191610b24565b820191906000526020600020905b815481529060010190602001808311610b0757829003601f168201915b505050505090806001018054610b3990611ccf565b80601f0160208091040260200160405190810160405280929190818152602001828054610b6590611ccf565b8015610bb25780601f10610b8757610100808354040283529160200191610bb2565b820191906000526020600020905b815481529060010190602001808311610b9557829003601f168201915b5050505050908060020154908060030160009054906101000a900473ffffffffffffffffffffffffffffffffffffffff16908060040160009054906101000a900473ffffffffffffffffffffffffffffffffffffffff16908060050154908060060160009054906101000a900460ff16908060060160019054906101000a900460ff16905088565b60038054610c4790611ccf565b80601f0160208091040260200160405190810160405280929190818152602001828054610c7390611ccf565b8015610cc05780601f10610c9557610100808354040283529160200191610cc0565b820191906000526020600020905b815481529060010190602001808311610ca357829003601f168201915b505050505081565b60016020528160005260406000208181548110610ce457600080fd5b90600052602060002001600091509150505481565b600080855111610d3e576040517f08c379a0000000000000000000000000000000000000000000000000000000008152600401610d3590611eef565b60405180910390fd5b6000845111610d82576040517f08c379a0000000000000000000000000000000000000000000000000000000008152600401610d7990611f5b565b60405180910390fd5b428311610dc4576040517f08c379a0000000000000000000000000000000000000000000000000000000008152600401610dbb90611fc7565b60405180910390fd5b60003411610e07576040517f08c379a0000000000000000000000000000000000000000000000000000000008152600401610dfe90612033565b60405180910390fd5b600073ffffffffffffffffffffffffffffffffffffffff168273ffffffffffffffffffffffffffffffffffffffff1603610e76576040517f08c379a0000000000000000000000000000000000000000000000000000000008152600401610e6d9061209f565b60405180910390fd5b3382868542604051602001610e8f959493929190612164565b60405160208183030381529060405280519060200120905060008082815260200190815260200160002060060160019054906101000a900460ff1615610f0a576040517f08c379a0000000000000000000000000000000000000000000000000000000008152600401610f019061220b565b60405180910390fd5b6040518061010001604052808681526020018581526020018481526020013373ffffffffffffffffffffffffffffffffffffffff1681526020018373ffffffffffffffffffffffffffffffffffffffff168152602001348152602001600015158152602001600115158152506000808381526020019081526020016000206000820151816000019081610f9d91906123c2565b506020820151816001019081610fb391906123c2565b506040820151816002015560608201518160030160006101000a81548173ffffffffffffffffffffffffffffffffffffffff021916908373ffffffffffffffffffffffffffffffffffffffff16021790555060808201518160040160006101000a81548173ffffffffffffffffffffffffffffffffffffffff021916908373ffffffffffffffffffffffffffffffffffffffff16021790555060a0820151816005015560c08201518160060160006101000a81548160ff02191690831515021790555060e08201518160060160016101000a81548160ff021916908315150217905550905050600160003373ffffffffffffffffffffffffffffffffffffffff1673ffffffffffffffffffffffffffffffffffffffff168152602001908152602001600020819080600181540180825580915050600190039060005260206000200160009091909190915055600260008373ffffffffffffffffffffffffffffffffffffffff1673ffffffffffffffffffffffffffffffffffffffff1681526020019081526020016000208190806001815401808255809150506001900390600052602060002001600090919091909150558173ffffffffffffffffffffffffffffffffffffffff163373ffffffffffffffffffffffffffffffffffffffff16827f0d80f07f08f33da95c0e90a3767d38047ef1d66f56058e94b7100d54c72e36bb8887346040516111c793929190612494565b60405180910390a4949350505050565b600260205281600052604060002081815481106111f357600080fd5b90600052602060002001600091509150505481565b600080600083815260200190815260200160002090508060060160019054906101000a900460ff1661126f576040517f08c379a000000000000000000000000000000000000000000000000000000000815260040161126690611b82565b60405180910390fd5b3373ffffffffffffffffffffffffffffffffffffffff168160030160009054906101000a900473ffffffffffffffffffffffffffffffffffffffff1673ffffffffffffffffffffffffffffffffffffffff16148061131c57503373ffffffffffffffffffffffffffffffffffffffff168160040160009054906101000a900473ffffffffffffffffffffffffffffffffffffffff1673ffffffffffffffffffffffffffffffffffffffff16145b61135b576040517f08c379a000000000000000000000000000000000000000000000000000000000815260040161135290611c14565b60405180910390fd5b8060060160009054906101000a900460ff16156113ad576040517f08c379a00000000000000000000000000000000000000000000000000000000081526004016113a490611c80565b60405180910390fd5b80600201544210156113f4576040517f08c379a00000000000000000000000000000000000000000000000000000000081526004016113eb9061251e565b60405180910390fd5b60018160060160006101000a81548160ff0219169083151502179055508060030160009054906101000a900473ffffffffffffffffffffffffffffffffffffffff1673ffffffffffffffffffffffffffffffffffffffff166108fc82600501549081150290604051600060405180830381858888f1935050505015801561147f573d6000803e3d6000fd5b508060030160009054906101000a900473ffffffffffffffffffffffffffffffffffffffff1673ffffffffffffffffffffffffffffffffffffffff16827fe4ed238330caae54cb454153824eb4d83b179b43554fc8d06dcbfd8c7f72cad160405160405180910390a35050565b6000604051905090565b600080fd5b600080fd5b6000819050919050565b61151381611500565b811461151e57600080fd5b50565b6000813590506115308161150a565b92915050565b60006020828403121561154c5761154b6114f6565b5b600061155a84828501611521565b91505092915050565b600073ffffffffffffffffffffffffffffffffffffffff82169050919050565b600061158e82611563565b9050919050565b61159e81611583565b81146115a957600080fd5b50565b6000813590506115bb81611595565b92915050565b6000602082840312156115d7576115d66114f6565b5b60006115e5848285016115ac565b91505092915050565b600081519050919050565b600082825260208201905092915050565b6000819050602082019050919050565b61162381611500565b82525050565b6000611635838361161a565b60208301905092915050565b6000602082019050919050565b6000611659826115ee565b61166381856115f9565b935061166e8361160a565b8060005b8381101561169f5781516116868882611629565b975061169183611641565b925050600181019050611672565b5085935050505092915050565b600060208201905081810360008301526116c6818461164e565b905092915050565b600081519050919050565b600082825260208201905092915050565b60005b838110156117085780820151818401526020810190506116ed565b60008484015250505050565b6000601f19601f8301169050919050565b6000611730826116ce565b61173a81856116d9565b935061174a8185602086016116ea565b61175381611714565b840191505092915050565b6000819050919050565b6117718161175e565b82525050565b61178081611583565b82525050565b60008115159050919050565b61179b81611786565b82525050565b600060e08201905081810360008301526117bb818a611725565b905081810360208301526117cf8189611725565b90506117de6040830188611768565b6117eb6060830187611777565b6117f86080830186611777565b61180560a0830185611768565b61181260c0830184611792565b98975050505050505050565b6000610100820190508181036000830152611839818b611725565b9050818103602083015261184d818a611725565b905061185c6040830189611768565b6118696060830188611777565b6118766080830187611777565b61188360a0830186611768565b61189060c0830185611792565b61189d60e0830184611792565b9998505050505050505050565b600060208201905081810360008301526118c48184611725565b905092915050565b6118d58161175e565b81146118e057600080fd5b50565b6000813590506118f2816118cc565b92915050565b6000806040838503121561190f5761190e6114f6565b5b600061191d858286016115ac565b925050602061192e858286016118e3565b9150509250929050565b61194181611500565b82525050565b600060208201905061195c6000830184611938565b92915050565b600080fd5b600080fd5b7f4e487b7100000000000000000000000000000000000000000000000000000000600052604160045260246000fd5b6119a482611714565b810181811067ffffffffffffffff821117156119c3576119c261196c565b5b80604052505050565b60006119d66114ec565b90506119e2828261199b565b919050565b600067ffffffffffffffff821115611a0257611a0161196c565b5b611a0b82611714565b9050602081019050919050565b82818337600083830152505050565b6000611a3a611a35846119e7565b6119cc565b905082815260208101848484011115611a5657611a55611967565b5b611a61848285611a18565b509392505050565b600082601f830112611a7e57611a7d611962565b5b8135611a8e848260208601611a27565b91505092915050565b60008060008060808587031215611ab157611ab06114f6565b5b600085013567ffffffffffffffff811115611acf57611ace6114fb565b5b611adb87828801611a69565b945050602085013567ffffffffffffffff811115611afc57611afb6114fb565b5b611b0887828801611a69565b9350506040611b19878288016118e3565b9250506060611b2a878288016115ac565b91505092959194509250565b7f46696c6520646f65736e27742065786973740000000000000000000000000000600082015250565b6000611b6c6012836116d9565b9150611b7782611b36565b602082019050919050565b60006020820190508181036000830152611b9b81611b5f565b9050919050565b7f4f6e6c79206f776e6572206f7220726563697069656e742063616e20756e6c6f60008201527f636b000000000000000000000000000000000000000000000000000000000000602082015250565b6000611bfe6022836116d9565b9150611c0982611ba2565b604082019050919050565b60006020820190508181036000830152611c2d81611bf1565b9050919050565b7f416c726561647920756e6c6f636b656400000000000000000000000000000000600082015250565b6000611c6a6010836116d9565b9150611c7582611c34565b602082019050919050565b60006020820190508181036000830152611c9981611c5d565b9050919050565b7f4e487b7100000000000000000000000000000000000000000000000000000000600052602260045260246000fd5b60006002820490506001821680611ce757607f821691505b602082108103611cfa57611cf9611ca0565b5b50919050565b60008190508160005260206000209050919050565b60008154611d2281611ccf565b611d2c81866116d9565b94506001821660008114611d475760018114611d5d57611d90565b60ff198316865281151560200286019350611d90565b611d6685611d00565b60005b83811015611d8857815481890152600182019150602081019050611d69565b808801955050505b50505092915050565b60006040820190508181036000830152611db38185611d15565b9050611dc26020830184611768565b9392505050565b7f4e487b7100000000000000000000000000000000000000000000000000000000600052601160045260246000fd5b6000611e038261175e565b9150611e0e8361175e565b9250828201905080821115611e2657611e25611dc9565b5b92915050565b7f4e487b7100000000000000000000000000000000000000000000000000000000600052603260045260246000fd5b6000611e668261175e565b91507fffffffffffffffffffffffffffffffffffffffffffffffffffffffffffffffff8203611e9857611e97611dc9565b5b600182019050919050565b7f4950465320686173682072657175697265640000000000000000000000000000600082015250565b6000611ed96012836116d9565b9150611ee482611ea3565b602082019050919050565b60006020820190508181036000830152611f0881611ecc565b9050919050565b7f46696c65206e616d652072657175697265640000000000000000000000000000600082015250565b6000611f456012836116d9565b9150611f5082611f0f565b602082019050919050565b60006020820190508181036000830152611f7481611f38565b9050919050565b7f4d757374206265206675747572652074696d6500000000000000000000000000600082015250565b6000611fb16013836116d9565b9150611fbc82611f7b565b602082019050919050565b60006020820190508181036000830152611fe081611fa4565b9050919050565b7f4c6f636b20666565207265717569726564000000000000000000000000000000600082015250565b600061201d6011836116d9565b915061202882611fe7565b602082019050919050565b6000602082019050818103600083015261204c81612010565b9050919050565b7f496e76616c696420726563697069656e74206164647265737300000000000000600082015250565b60006120896019836116d9565b915061209482612053565b602082019050919050565b600060208201905081810360008301526120b88161207c565b9050919050565b60008160601b9050919050565b60006120d7826120bf565b9050919050565b60006120e9826120cc565b9050919050565b6121016120fc82611583565b6120de565b82525050565b600081905092915050565b600061211d826116ce565b6121278185612107565b93506121378185602086016116ea565b80840191505092915050565b6000819050919050565b61215e6121598261175e565b612143565b82525050565b600061217082886120f0565b60148201915061218082876120f0565b6014820191506121908286612112565b915061219c828561214d565b6020820191506121ac828461214d565b6020820191508190509695505050505050565b7f46696c6520616c7265616479206c6f636b656400000000000000000000000000600082015250565b60006121f56013836116d9565b9150612200826121bf565b602082019050919050565b60006020820190508181036000830152612224816121e8565b9050919050565b60006020601f8301049050919050565b600082821b905092915050565b6000600883026122787fffffffffffffffffffffffffffffffffffffffffffffffffffffffffffffffff8261223b565b612282868361223b565b95508019841693508086168417925050509392505050565b6000819050919050565b60006122bf6122ba6122b58461175e565b61229a565b61175e565b9050919050565b6000819050919050565b6122d9836122a4565b6122ed6122e5826122c6565b848454612248565b825550505050565b600090565b6123026122f5565b61230d8184846122d0565b505050565b5b81811015612331576123266000826122fa565b600181019050612313565b5050565b601f8211156123765761234781611d00565b6123508461222b565b8101602085101561235f578190505b61237361236b8561222b565b830182612312565b50505b505050565b600082821c905092915050565b60006123996000198460080261237b565b1980831691505092915050565b60006123b28383612388565b9150826002028217905092915050565b6123cb826116ce565b67ffffffffffffffff8111156123e4576123e361196c565b5b6123ee8254611ccf565b6123f9828285612335565b600060209050601f83116001811461242c576000841561241a578287015190505b61242485826123a6565b86555061248c565b601f19841661243a86611d00565b60005b828110156124625784890151825560018201915060208501945060208101905061243d565b8683101561247f578489015161247b601f891682612388565b8355505b6001600288020188555050505b505050505050565b600060608201905081810360008301526124ae8186611725565b90506124bd6020830185611768565b6124ca6040830184611768565b949350505050565b7f556e6c6f636b2074696d65206e6f742072656163686564000000000000000000600082015250565b60006125086017836116d9565b9150612513826124d2565b602082019050919050565b60006020820190508181036000830152612537816124fb565b905091905056fea2646970667358221220416701b6ddfc0bff734feff4e71b23f3cc61d6da49b4fd78a617dadce2c30ac064736f6c634300081800337372314d596b70354d70727574533136666b4a50365a4e4174386164676e4d6f7a57686a",
          "opcodes": "PUSH1 0x80 PUSH1 0x40 MSTORE PUSH1 0x40 MLOAD DUP1 PUSH1 0x60 ADD PUSH1 0x40 MSTORE DUP1 PUSH1 0x24 DUP2 MSTORE PUSH1 0x20 ADD PUSH3 0x2928 PUSH1 0x24 SWAP2 CODECOPY PUSH1 0x3 SWAP1 DUP2 PUSH3 0x2E SWAP2 SWAP1 PUSH3 0x2BD JUMP JUMPDEST POP CALLVALUE DUP1 ISZERO PUSH3 0x3C JUMPI PUSH1 0x0 DUP1 REVERT JUMPDEST POP PUSH3 0x3A4 JUMP JUMPDEST PUSH1 0x0 DUP2 MLOAD SWAP1 POP SWAP2 SWAP1 POP JUMP JUMPDEST PUSH32 0x4E487B7100000000000000000000000000000000000000000000000000000000 PUSH1 0x0 MSTORE PUSH1 0x41 PUSH1 0x4 MSTORE PUSH1 0x24 PUSH1 0x0 REVERT JUMPDEST PUSH32 0x4E487B7100000000000000000000000000000000000000000000000000000000 PUSH1 0x0 MSTORE PUSH1 0x22 PUSH1 0x4 MSTORE PUSH1 0x24 PUSH1 0x0 REVERT JUMPDEST PUSH1 0x0 PUSH1 0x2 DUP3 DIV SWAP1 POP PUSH1 0x1 DUP3 AND DUP1 PUSH3 0xC5 JUMPI PUSH1 0x7F DUP3 AND SWAP2 POP JUMPDEST PUSH1 0x20 DUP3 LT DUP2 SUB PUSH3 0xDB JUMPI PUSH3 0xDA PUSH3 0x7D JUMP JUMPDEST JUMPDEST POP SWAP2 SWAP1 POP JUMP JUMPDEST PUSH1 0x0 DUP2 SWAP1 POP DUP2 PUSH1 0x0 MSTORE PUSH1 0x20 PUSH1 0x0 KECCAK256 SWAP1 POP SWAP2 SWAP1 POP JUMP JUMPDEST PUSH1 0x0 PUSH1 0x20 PUSH1 0x1F DUP4 ADD DIV SWAP1 POP SWAP2 SWAP1 POP JUMP JUMPDEST PUSH1 0x0 DUP3 DUP3 SHL SWAP1 POP SWAP3 SWAP2 POP POP JUMP JUMPDEST PUSH1 0x0 PUSH1 0x8 DUP4 MUL PUSH3 0x145 PUSH32 0xFFFFFFFFFFFFFFFFFFFFFFFFFFFFFFFFFFFFFFFFFFFFFFFFFFFFFFFFFFFFFFFF DUP3 PUSH3 0x106 JUMP JUMPDEST PUSH3 0x151 DUP7 DUP4 PUSH3 0x106 JUMP JUMPDEST SWAP6 POP DUP1 NOT DUP5 AND SWAP4 POP DUP1 DUP7 AND DUP5 OR SWAP3 POP POP POP SWAP4 SWAP3 POP POP POP JUMP JUMPDEST PUSH1 0x0 DUP2 SWAP1 POP SWAP2 SWAP1 POP JUMP JUMPDEST PUSH1 0x0 DUP2 SWAP1 POP SWAP2 SWAP1 POP JUMP JUMPDEST PUSH1 0x0 PUSH3 0x19E PUSH3 0x198 PUSH3 0x192 DUP5 PUSH3 0x169 JUMP JUMPDEST PUSH3 0x173 JUMP JUMPDEST PUSH3 0x169 JUMP JUMPDEST SWAP1 POP SWAP2 SWAP1 POP JUMP JUMPDEST PUSH1 0x0 DUP2 SWAP1 POP SWAP2 SWAP1 POP JUMP JUMPDEST PUSH3 0x1BA DUP4 PUSH3 0x17D JUMP JUMPDEST PUSH3 0x1D2 PUSH3 0x1C9 DUP3 PUSH3 0x1A5 JUMP JUMPDEST DUP5 DUP5 SLOAD PUSH3 0x113 JUMP JUMPDEST DUP3 SSTORE POP POP POP POP JUMP JUMPDEST PUSH1 0x0 SWAP1 JUMP JUMPDEST PUSH3 0x1E9 PUSH3 0x1DA JUMP JUMPDEST PUSH3 0x1F6 DUP2 DUP5 DUP5 PUSH3 0x1AF JUMP JUMPDEST POP POP POP JUMP JUMPDEST JUMPDEST DUP2 DUP2 LT ISZERO PUSH3 0x21E JUMPI PUSH3 0x212 PUSH1 0x0 DUP3 PUSH3 0x1DF JUMP JUMPDEST PUSH1 0x1 DUP2 ADD SWAP1 POP PUSH3 0x1FC JUMP JUMPDEST POP POP JUMP JUMPDEST PUSH1 0x1F DUP3 GT ISZERO PUSH3 0x26D JUMPI PUSH3 0x237 DUP2 PUSH3 0xE1 JUMP JUMPDEST PUSH3 0x242 DUP5 PUSH3 0xF6 JUMP JUMPDEST DUP2 ADD PUSH1 0x20 DUP6 LT ISZERO PUSH3 0x252 JUMPI DUP2 SWAP1 POP JUMPDEST PUSH3 0x26A PUSH3 0x261 DUP6 PUSH3 0xF6 JUMP JUMPDEST DUP4 ADD DUP3 PUSH3 0x1FB JUMP JUMPDEST POP POP JUMPDEST POP POP POP JUMP JUMPDEST PUSH1 0x0 DUP3 DUP3 SHR SWAP1 POP SWAP3 SWAP2 POP POP JUMP JUMPDEST PUSH1 0x0 PUSH3 0x292 PUSH1 0x0 NOT DUP5 PUSH1 0x8 MUL PUSH3 0x272 JUMP JUMPDEST NOT DUP1 DUP4 AND SWAP2 POP POP SWAP3 SWAP2 POP POP JUMP JUMPDEST PUSH1 0x0 PUSH3 0x2AD DUP4 DUP4 PUSH3 0x27F JUMP JUMPDEST SWAP2 POP DUP3 PUSH1 0x2 MUL DUP3 OR SWAP1 POP SWAP3 SWAP2 POP POP JUMP JUMPDEST PUSH3 0x2C8 DUP3 PUSH3 0x43 JUMP JUMPDEST PUSH8 0xFFFFFFFFFFFFFFFF DUP2 GT ISZERO PUSH3 0x2E4 JUMPI PUSH3 0x2E3 PUSH3 0x4E JUMP JUMPDEST JUMPDEST PUSH3 0x2F0 DUP3 SLOAD PUSH3 0xAC JUMP JUMPDEST PUSH3 0x2FD DUP3 DUP3 DUP6 PUSH3 0x222 JUMP JUMPDEST PUSH1 0x0 PUSH1 0x20 SWAP1 POP PUSH1 0x1F DUP4 GT PUSH1 0x1 DUP2 EQ PUSH3 0x335 JUMPI PUSH1 0x0 DUP5 ISZERO PUSH3 0x320 JUMPI DUP3 DUP8 ADD MLOAD SWAP1 POP JUMPDEST PUSH3 0x32C DUP6 DUP3 PUSH3 0x29F JUMP JUMPDEST DUP7 SSTORE POP PUSH3 0x39C JUMP JUMPDEST PUSH1 0x1F NOT DUP5 AND PUSH3 0x345 DUP7 PUSH3 0xE1 JUMP JUMPDEST PUSH1 0x0 JUMPDEST DUP3 DUP2 LT ISZERO PUSH3 0x36F JUMPI DUP5 DUP10 ADD MLOAD DUP3 SSTORE PUSH1 0x1 DUP3 ADD SWAP2 POP PUSH1 0x20 DUP6 ADD SWAP5 POP PUSH1 0x20 DUP2 ADD SWAP1 POP PUSH3 0x348 JUMP JUMPDEST DUP7 DUP4 LT ISZERO PUSH3 0x38F JUMPI DUP5 DUP10 ADD MLOAD PUSH3 0x38B PUSH1 0x1F DUP10 AND DUP3 PUSH3 0x27F JUMP JUMPDEST DUP4 SSTORE POP JUMPDEST PUSH1 0x1 PUSH1 0x2 DUP9 MUL ADD DUP9 SSTORE POP POP POP JUMPDEST POP POP POP POP POP POP JUMP JUMPDEST PUSH2 0x2574 DUP1 PUSH3 0x3B4 PUSH1 0x0 CODECOPY PUSH1 0x0 RETURN INVALID PUSH1 0x80 PUSH1 0x40 MSTORE PUSH1 0x4 CALLDATASIZE LT PUSH2 0x9C JUMPI PUSH1 0x0 CALLDATALOAD PUSH1 0xE0 SHR DUP1 PUSH4 0x554B3C20 GT PUSH2 0x64 JUMPI DUP1 PUSH4 0x554B3C20 EQ PUSH2 0x1C4 JUMPI DUP1 PUSH4 0x5EC6A8DF EQ PUSH2 0x208 JUMPI DUP1 PUSH4 0x718F38A6 EQ PUSH2 0x233 JUMPI DUP1 PUSH4 0xD1D90794 EQ PUSH2 0x270 JUMPI DUP1 PUSH4 0xD6C87288 EQ PUSH2 0x2A0 JUMPI DUP1 PUSH4 0xE55317B9 EQ PUSH2 0x2DD JUMPI PUSH2 0x9C JUMP JUMPDEST DUP1 PUSH4 0x3D83328 EQ PUSH2 0xA1 JUMPI DUP1 PUSH4 0x177F42F5 EQ PUSH2 0xCA JUMPI DUP1 PUSH4 0x18FA50A7 EQ PUSH2 0x107 JUMPI DUP1 PUSH4 0x1FC37922 EQ PUSH2 0x144 JUMPI DUP1 PUSH4 0x52F7347B EQ PUSH2 0x181 JUMPI JUMPDEST PUSH1 0x0 DUP1 REVERT JUMPDEST CALLVALUE DUP1 ISZERO PUSH2 0xAD JUMPI PUSH1 0x0 DUP1 REVERT JUMPDEST POP PUSH2 0xC8 PUSH1 0x4 DUP1 CALLDATASIZE SUB DUP2 ADD SWAP1 PUSH2 0xC3 SWAP2 SWAP1 PUSH2 0x1536 JUMP JUMPDEST PUSH2 0x2F9 JUMP JUMPDEST STOP JUMPDEST CALLVALUE DUP1 ISZERO PUSH2 0xD6 JUMPI PUSH1 0x0 DUP1 REVERT JUMPDEST POP PUSH2 0xF1 PUSH1 0x4 DUP1 CALLDATASIZE SUB DUP2 ADD SWAP1 PUSH2 0xEC SWAP2 SWAP1 PUSH2 0x15C1 JUMP JUMPDEST PUSH2 0x4F8 JUMP JUMPDEST PUSH1 0x40 MLOAD PUSH2 0xFE SWAP2 SWAP1 PUSH2 0x16AC JUMP JUMPDEST PUSH1 0x40 MLOAD DUP1 SWAP2 SUB SWAP1 RETURN JUMPDEST CALLVALUE DUP1 ISZERO PUSH2 0x113 JUMPI PUSH1 0x0 DUP1 REVERT JUMPDEST POP PUSH2 0x12E PUSH1 0x4 DUP1 CALLDATASIZE SUB DUP2 ADD SWAP1 PUSH2 0x129 SWAP2 SWAP1 PUSH2 0x15C1 JUMP JUMPDEST PUSH2 0x749 JUMP JUMPDEST PUSH1 0x40 MLOAD PUSH2 0x13B SWAP2 SWAP1 PUSH2 0x16AC JUMP JUMPDEST PUSH1 0x40 MLOAD DUP1 SWAP2 SUB SWAP1 RETURN JUMPDEST CALLVALUE DUP1 ISZERO PUSH2 0x150 JUMPI PUSH1 0x0 DUP1 REVERT JUMPDEST POP PUSH2 0x16B PUSH1 0x4 DUP1 CALLDATASIZE SUB DUP2 ADD SWAP1 PUSH2 0x166 SWAP2 SWAP1 PUSH2 0x15C1 JUMP JUMPDEST PUSH2 0x7E0 JUMP JUMPDEST PUSH1 0x40 MLOAD PUSH2 0x178 SWAP2 SWAP1 PUSH2 0x16AC JUMP JUMPDEST PUSH1 0x40 MLOAD DUP1 SWAP2 SUB SWAP1 RETURN JUMPDEST CALLVALUE DUP1 ISZERO PUSH2 0x18D JUMPI PUSH1 0x0 DUP1 REVERT JUMPDEST POP PUSH2 0x1A8 PUSH1 0x4 DUP1 CALLDATASIZE SUB DUP2 ADD SWAP1 PUSH2 0x1A3 SWAP2 SWAP1 PUSH2 0x1536 JUMP JUMPDEST PUSH2 0x877 JUMP JUMPDEST PUSH1 0x40 MLOAD PUSH2 0x1BB SWAP8 SWAP7 SWAP6 SWAP5 SWAP4 SWAP3 SWAP2 SWAP1 PUSH2 0x17A1 JUMP JUMPDEST PUSH1 0x40 MLOAD DUP1 SWAP2 SUB SWAP1 RETURN JUMPDEST CALLVALUE DUP1 ISZERO PUSH2 0x1D0 JUMPI PUSH1 0x0 DUP1 REVERT JUMPDEST POP PUSH2 0x1EB PUSH1 0x4 DUP1 CALLDATASIZE SUB DUP2 ADD SWAP1 PUSH2 0x1E6 SWAP2 SWAP1 PUSH2 0x1536 JUMP JUMPDEST PUSH2 0xA88 JUMP JUMPDEST PUSH1 0x40 MLOAD PUSH2 0x1FF SWAP9 SWAP8 SWAP7 SWAP6 SWAP5 SWAP4 SWAP3 SWAP2 SWAP1 PUSH2 0x181E JUMP JUMPDEST PUSH1 0x40 MLOAD DUP1 SWAP2 SUB SWAP1 RETURN JUMPDEST CALLVALUE DUP1 ISZERO PUSH2 0x214 JUMPI PUSH1 0x0 DUP1 REVERT JUMPDEST POP PUSH2 0x21D PUSH2 0xC3A JUMP JUMPDEST PUSH1 0x40 MLOAD PUSH2 0x22A SWAP2 SWAP1 PUSH2 0x18AA JUMP JUMPDEST PUSH1 0x40 MLOAD DUP1 SWAP2 SUB SWAP1 RETURN JUMPDEST CALLVALUE DUP1 ISZERO PUSH2 0x23F JUMPI PUSH1 0x0 DUP1 REVERT JUMPDEST POP PUSH2 0x25A PUSH1 0x4 DUP1 CALLDATASIZE SUB DUP2 ADD SWAP1 PUSH2 0x255 SWAP2 SWAP1 PUSH2 0x18F8 JUMP JUMPDEST PUSH2 0xCC8 JUMP JUMPDEST PUSH1 0x40 MLOAD PUSH2 0x267 SWAP2 SWAP1 PUSH2 0x1947 JUMP JUMPDEST PUSH1 0x40 MLOAD DUP1 SWAP2 SUB SWAP1 RETURN JUMPDEST PUSH2 0x28A PUSH1 0x4 DUP1 CALLDATASIZE SUB DUP2 ADD SWAP1 PUSH2 0x285 SWAP2 SWAP1 PUSH2 0x1A97 JUMP JUMPDEST PUSH2 0xCF9 JUMP JUMPDEST PUSH1 0x40 MLOAD PUSH2 0x297 SWAP2 SWAP1 PUSH2 0x1947 JUMP JUMPDEST PUSH1 0x40 MLOAD DUP1 SWAP2 SUB SWAP1 RETURN JUMPDEST CALLVALUE DUP1 ISZERO PUSH2 0x2AC JUMPI PUSH1 0x0 DUP1 REVERT JUMPDEST POP PUSH2 0x2C7 PUSH1 0x4 DUP1 CALLDATASIZE SUB DUP2 ADD SWAP1 PUSH2 0x2C2 SWAP2 SWAP1 PUSH2 0x18F8 JUMP JUMPDEST PUSH2 0x11D7 JUMP JUMPDEST PUSH1 0x40 MLOAD PUSH2 0x2D4 SWAP2 SWAP1 PUSH2 0x1947 JUMP JUMPDEST PUSH1 0x40 MLOAD DUP1 SWAP2 SUB SWAP1 RETURN JUMPDEST PUSH2 0x2F7 PUSH1 0x4 DUP1 CALLDATASIZE SUB DUP2 ADD SWAP1 PUSH2 0x2F2 SWAP2 SWAP1 PUSH2 0x1536 JUMP JUMPDEST PUSH2 0x1208 JUMP JUMPDEST STOP JUMPDEST PUSH1 0x0 DUP1 PUSH1 0x0 DUP4 DUP2 MSTORE PUSH1 0x20 ADD SWAP1 DUP2 MSTORE PUSH1 0x20 ADD PUSH1 0x0 KECCAK256 SWAP1 POP DUP1 PUSH1 0x6 ADD PUSH1 0x1 SWAP1 SLOAD SWAP1 PUSH2 0x100 EXP SWAP1 DIV PUSH1 0xFF AND PUSH2 0x360 JUMPI PUSH1 0x40 MLOAD PUSH32 0x8C379A000000000000000000000000000000000000000000000000000000000 DUP2 MSTORE PUSH1 0x4 ADD PUSH2 0x357 SWAP1 PUSH2 0x1B82 JUMP JUMPDEST PUSH1 0x40 MLOAD DUP1 SWAP2 SUB SWAP1 REVERT JUMPDEST CALLER PUSH20 0xFFFFFFFFFFFFFFFFFFFFFFFFFFFFFFFFFFFFFFFF AND DUP2 PUSH1 0x3 ADD PUSH1 0x0 SWAP1 SLOAD SWAP1 PUSH2 0x100 EXP SWAP1 DIV PUSH20 0xFFFFFFFFFFFFFFFFFFFFFFFFFFFFFFFFFFFFFFFF AND PUSH20 0xFFFFFFFFFFFFFFFFFFFFFFFFFFFFFFFFFFFFFFFF AND EQ DUP1 PUSH2 0x40D JUMPI POP CALLER PUSH20 0xFFFFFFFFFFFFFFFFFFFFFFFFFFFFFFFFFFFFFFFF AND DUP2 PUSH1 0x4 ADD PUSH1 0x0 SWAP1 SLOAD SWAP1 PUSH2 0x100 EXP SWAP1 DIV PUSH20 0xFFFFFFFFFFFFFFFFFFFFFFFFFFFFFFFFFFFFFFFF AND PUSH20 0xFFFFFFFFFFFFFFFFFFFFFFFFFFFFFFFFFFFFFFFF AND EQ JUMPDEST PUSH2 0x44C JUMPI PUSH1 0x40 MLOAD PUSH32 0x8C379A000000000000000000000000000000000000000000000000000000000 DUP2 MSTORE PUSH1 0x4 ADD PUSH2 0x443 SWAP1 PUSH2 0x1C14 JUMP JUMPDEST PUSH1 0x40 MLOAD DUP1 SWAP2 SUB SWAP1 REVERT JUMPDEST DUP1 PUSH1 0x6 ADD PUSH1 0x0 SWAP1 SLOAD SWAP1 PUSH2 0x100 EXP SWAP1 DIV PUSH1 0xFF AND ISZERO PUSH2 0x49E JUMPI PUSH1 0x40 MLOAD PUSH32 0x8C379A000000000000000000000000000000000000000000000000000000000 DUP2 MSTORE PUSH1 0x4 ADD PUSH2 0x495 SWAP1 PUSH2 0x1C80 JUMP JUMPDEST PUSH1 0x40 MLOAD DUP1 SWAP2 SUB SWAP1 REVERT JUMPDEST CALLER PUSH20 0xFFFFFFFFFFFFFFFFFFFFFFFFFFFFFFFFFFFFFFFF AND DUP3 PUSH32 0xC39F7730AFE58E8228D760343FCEF8D51DB91BA1F8BD9FA853BFBF510B3393E1 PUSH1 0x3 DUP5 PUSH1 0x2 ADD SLOAD PUSH1 0x40 MLOAD PUSH2 0x4EC SWAP3 SWAP2 SWAP1 PUSH2 0x1D99 JUMP JUMPDEST PUSH1 0x40 MLOAD DUP1 SWAP2 SUB SWAP1 LOG3 POP POP JUMP JUMPDEST PUSH1 0x60 PUSH1 0x0 PUSH1 0x1 PUSH1 0x0 DUP5 PUSH20 0xFFFFFFFFFFFFFFFFFFFFFFFFFFFFFFFFFFFFFFFF AND PUSH20 0xFFFFFFFFFFFFFFFFFFFFFFFFFFFFFFFFFFFFFFFF AND DUP2 MSTORE PUSH1 0x20 ADD SWAP1 DUP2 MSTORE PUSH1 0x20 ADD PUSH1 0x0 KECCAK256 DUP1 SLOAD DUP1 PUSH1 0x20 MUL PUSH1 0x20 ADD PUSH1 0x40 MLOAD SWAP1 DUP2 ADD PUSH1 0x40 MSTORE DUP1 SWAP3 SWAP2 SWAP1 DUP2 DUP2 MSTORE PUSH1 0x20 ADD DUP3 DUP1 SLOAD DUP1 ISZERO PUSH2 0x585 JUMPI PUSH1 0x20 MUL DUP3 ADD SWAP2 SWAP1 PUSH1 0x0 MSTORE PUSH1 0x20 PUSH1 0x0 KECCAK256 SWAP1 JUMPDEST DUP2 SLOAD DUP2 MSTORE PUSH1 0x20 ADD SWAP1 PUSH1 0x1 ADD SWAP1 DUP1 DUP4 GT PUSH2 0x571 JUMPI JUMPDEST POP POP POP POP POP SWAP1 POP PUSH1 0x0 PUSH1 0x2 PUSH1 0x0 DUP6 PUSH20 0xFFFFFFFFFFFFFFFFFFFFFFFFFFFFFFFFFFFFFFFF AND PUSH20 0xFFFFFFFFFFFFFFFFFFFFFFFFFFFFFFFFFFFFFFFF AND DUP2 MSTORE PUSH1 0x20 ADD SWAP1 DUP2 MSTORE PUSH1 0x20 ADD PUSH1 0x0 KECCAK256 DUP1 SLOAD DUP1 PUSH1 0x20 MUL PUSH1 0x20 ADD PUSH1 0x40 MLOAD SWAP1 DUP2 ADD PUSH1 0x40 MSTORE DUP1 SWAP3 SWAP2 SWAP1 DUP2 DUP2 MSTORE PUSH1 0x20 ADD DUP3 DUP1 SLOAD DUP1 ISZERO PUSH2 0x617 JUMPI PUSH1 0x20 MUL DUP3 ADD SWAP2 SWAP1 PUSH1 0x0 MSTORE PUSH1 0x20 PUSH1 0x0 KECCAK256 SWAP1 JUMPDEST DUP2 SLOAD DUP2 MSTORE PUSH1 0x20 ADD SWAP1 PUSH1 0x1 ADD SWAP1 DUP1 DUP4 GT PUSH2 0x603 JUMPI JUMPDEST POP POP POP POP POP SWAP1 POP PUSH1 0x0 DUP2 MLOAD DUP4 MLOAD PUSH2 0x62E SWAP2 SWAP1 PUSH2 0x1DF8 JUMP JUMPDEST PUSH8 0xFFFFFFFFFFFFFFFF DUP2 GT ISZERO PUSH2 0x647 JUMPI PUSH2 0x646 PUSH2 0x196C JUMP JUMPDEST JUMPDEST PUSH1 0x40 MLOAD SWAP1 DUP1 DUP3 MSTORE DUP1 PUSH1 0x20 MUL PUSH1 0x20 ADD DUP3 ADD PUSH1 0x40 MSTORE DUP1 ISZERO PUSH2 0x675 JUMPI DUP2 PUSH1 0x20 ADD PUSH1 0x20 DUP3 MUL DUP1 CALLDATASIZE DUP4 CALLDATACOPY DUP1 DUP3 ADD SWAP2 POP POP SWAP1 POP JUMPDEST POP SWAP1 POP PUSH1 0x0 DUP1 JUMPDEST DUP5 MLOAD DUP2 LT ISZERO PUSH2 0x6DA JUMPI DUP5 DUP2 DUP2 MLOAD DUP2 LT PUSH2 0x698 JUMPI PUSH2 0x697 PUSH2 0x1E2C JUMP JUMPDEST JUMPDEST PUSH1 0x20 MUL PUSH1 0x20 ADD ADD MLOAD DUP4 DUP4 DUP2 MLOAD DUP2 LT PUSH2 0x6B3 JUMPI PUSH2 0x6B2 PUSH2 0x1E2C JUMP JUMPDEST JUMPDEST PUSH1 0x20 MUL PUSH1 0x20 ADD ADD DUP2 DUP2 MSTORE POP POP DUP2 DUP1 PUSH2 0x6CA SWAP1 PUSH2 0x1E5B JUMP JUMPDEST SWAP3 POP POP DUP1 DUP1 PUSH1 0x1 ADD SWAP2 POP POP PUSH2 0x67C JUMP JUMPDEST POP PUSH1 0x0 JUMPDEST DUP4 MLOAD DUP2 LT ISZERO PUSH2 0x73C JUMPI DUP4 DUP2 DUP2 MLOAD DUP2 LT PUSH2 0x6FA JUMPI PUSH2 0x6F9 PUSH2 0x1E2C JUMP JUMPDEST JUMPDEST PUSH1 0x20 MUL PUSH1 0x20 ADD ADD MLOAD DUP4 DUP4 DUP2 MLOAD DUP2 LT PUSH2 0x715 JUMPI PUSH2 0x714 PUSH2 0x1E2C JUMP JUMPDEST JUMPDEST PUSH1 0x20 MUL PUSH1 0x20 ADD ADD DUP2 DUP2 MSTORE POP POP DUP2 DUP1 PUSH2 0x72C SWAP1 PUSH2 0x1E5B JUMP JUMPDEST SWAP3 POP POP DUP1 DUP1 PUSH1 0x1 ADD SWAP2 POP POP PUSH2 0x6DE JUMP JUMPDEST POP DUP2 SWAP5 POP POP POP POP POP SWAP2 SWAP1 POP JUMP JUMPDEST PUSH1 0x60 PUSH1 0x2 PUSH1 0x0 DUP4 PUSH20 0xFFFFFFFFFFFFFFFFFFFFFFFFFFFFFFFFFFFFFFFF AND PUSH20 0xFFFFFFFFFFFFFFFFFFFFFFFFFFFFFFFFFFFFFFFF AND DUP2 MSTORE PUSH1 0x20 ADD SWAP1 DUP2 MSTORE PUSH1 0x20 ADD PUSH1 0x0 KECCAK256 DUP1 SLOAD DUP1 PUSH1 0x20 MUL PUSH1 0x20 ADD PUSH1 0x40 MLOAD SWAP1 DUP2 ADD PUSH1 0x40 MSTORE DUP1 SWAP3 SWAP2 SWAP1 DUP2 DUP2 MSTORE PUSH1 0x20 ADD DUP3 DUP1 SLOAD DUP1 ISZERO PUSH2 0x7D4 JUMPI PUSH1 0x20 MUL DUP3 ADD SWAP2 SWAP1 PUSH1 0x0 MSTORE PUSH1 0x20 PUSH1 0x0 KECCAK256 SWAP1 JUMPDEST DUP2 SLOAD DUP2 MSTORE PUSH1 0x20 ADD SWAP1 PUSH1 0x1 ADD SWAP1 DUP1 DUP4 GT PUSH2 0x7C0 JUMPI JUMPDEST POP POP POP POP POP SWAP1 POP SWAP2 SWAP1 POP JUMP JUMPDEST PUSH1 0x60 PUSH1 0x1 PUSH1 0x0 DUP4 PUSH20 0xFFFFFFFFFFFFFFFFFFFFFFFFFFFFFFFFFFFFFFFF AND PUSH20 0xFFFFFFFFFFFFFFFFFFFFFFFFFFFFFFFFFFFFFFFF AND DUP2 MSTORE PUSH1 0x20 ADD SWAP1 DUP2 MSTORE PUSH1 0x20 ADD PUSH1 0x0 KECCAK256 DUP1 SLOAD DUP1 PUSH1 0x20 MUL PUSH1 0x20 ADD PUSH1 0x40 MLOAD SWAP1 DUP2 ADD PUSH1 0x40 MSTORE DUP1 SWAP3 SWAP2 SWAP1 DUP2 DUP2 MSTORE PUSH1 0x20 ADD DUP3 DUP1 SLOAD DUP1 ISZERO PUSH2 0x86B JUMPI PUSH1 0x20 MUL DUP3 ADD SWAP2 SWAP1 PUSH1 0x0 MSTORE PUSH1 0x20 PUSH1 0x0 KECCAK256 SWAP1 JUMPDEST DUP2 SLOAD DUP2 MSTORE PUSH1 0x20 ADD SWAP1 PUSH1 0x1 ADD SWAP1 DUP1 DUP4 GT PUSH2 0x857 JUMPI JUMPDEST POP POP POP POP POP SWAP1 POP SWAP2 SWAP1 POP JUMP JUMPDEST PUSH1 0x60 DUP1 PUSH1 0x0 DUP1 PUSH1 0x0 DUP1 PUSH1 0x0 DUP1 PUSH1 0x0 DUP1 DUP11 DUP2 MSTORE PUSH1 0x20 ADD SWAP1 DUP2 MSTORE PUSH1 0x20 ADD PUSH1 0x0 KECCAK256 SWAP1 POP DUP1 PUSH1 0x6 ADD PUSH1 0x1 SWAP1 SLOAD SWAP1 PUSH2 0x100 EXP SWAP1 DIV PUSH1 0xFF AND PUSH2 0x8E8 JUMPI PUSH1 0x40 MLOAD PUSH32 0x8C379A000000000000000000000000000000000000000000000000000000000 DUP2 MSTORE PUSH1 0x4 ADD PUSH2 0x8DF SWAP1 PUSH2 0x1B82 JUMP JUMPDEST PUSH1 0x40 MLOAD DUP1 SWAP2 SUB SWAP1 REVERT JUMPDEST DUP1 PUSH1 0x0 ADD DUP2 PUSH1 0x1 ADD DUP3 PUSH1 0x2 ADD SLOAD DUP4 PUSH1 0x3 ADD PUSH1 0x0 SWAP1 SLOAD SWAP1 PUSH2 0x100 EXP SWAP1 DIV PUSH20 0xFFFFFFFFFFFFFFFFFFFFFFFFFFFFFFFFFFFFFFFF AND DUP5 PUSH1 0x4 ADD PUSH1 0x0 SWAP1 SLOAD SWAP1 PUSH2 0x100 EXP SWAP1 DIV PUSH20 0xFFFFFFFFFFFFFFFFFFFFFFFFFFFFFFFFFFFFFFFF AND DUP6 PUSH1 0x5 ADD SLOAD DUP7 PUSH1 0x6 ADD PUSH1 0x0 SWAP1 SLOAD SWAP1 PUSH2 0x100 EXP SWAP1 DIV PUSH1 0xFF AND DUP7 DUP1 SLOAD PUSH2 0x962 SWAP1 PUSH2 0x1CCF JUMP JUMPDEST DUP1 PUSH1 0x1F ADD PUSH1 0x20 DUP1 SWAP2 DIV MUL PUSH1 0x20 ADD PUSH1 0x40 MLOAD SWAP1 DUP2 ADD PUSH1 0x40 MSTORE DUP1 SWAP3 SWAP2 SWAP1 DUP2 DUP2 MSTORE PUSH1 0x20 ADD DUP3 DUP1 SLOAD PUSH2 0x98E SWAP1 PUSH2 0x1CCF JUMP JUMPDEST DUP1 ISZERO PUSH2 0x9DB JUMPI DUP1 PUSH1 0x1F LT PUSH2 0x9B0 JUMPI PUSH2 0x100 DUP1 DUP4 SLOAD DIV MUL DUP4 MSTORE SWAP2 PUSH1 0x20 ADD SWAP2 PUSH2 0x9DB JUMP JUMPDEST DUP3 ADD SWAP2 SWAP1 PUSH1 0x0 MSTORE PUSH1 0x20 PUSH1 0x0 KECCAK256 SWAP1 JUMPDEST DUP2 SLOAD DUP2 MSTORE SWAP1 PUSH1 0x1 ADD SWAP1 PUSH1 0x20 ADD DUP1 DUP4 GT PUSH2 0x9BE JUMPI DUP3 SWAP1 SUB PUSH1 0x1F AND DUP3 ADD SWAP2 JUMPDEST POP POP POP POP POP SWAP7 POP DUP6 DUP1 SLOAD PUSH2 0x9EE SWAP1 PUSH2 0x1CCF JUMP JUMPDEST DUP1 PUSH1 0x1F ADD PUSH1 0x20 DUP1 SWAP2 DIV MUL PUSH1 0x20 ADD PUSH1 0x40 MLOAD SWAP1 DUP2 ADD PUSH1 0x40 MSTORE DUP1 SWAP3 SWAP2 SWAP1 DUP2 DUP2 MSTORE PUSH1 0x20 ADD DUP3 DUP1 SLOAD PUSH2 0xA1A SWAP1 PUSH2 0x1CCF JUMP JUMPDEST DUP1 ISZERO PUSH2 0xA67 JUMPI DUP1 PUSH1 0x1F LT PUSH2 0xA3C JUMPI PUSH2 0x100 DUP1 DUP4 SLOAD DIV MUL DUP4 MSTORE SWAP2 PUSH1 0x20 ADD SWAP2 PUSH2 0xA67 JUMP JUMPDEST DUP3 ADD SWAP2 SWAP1 PUSH1 0x0 MSTORE PUSH1 0x20 PUSH1 0x0 KECCAK256 SWAP1 JUMPDEST DUP2 SLOAD DUP2 MSTORE SWAP1 PUSH1 0x1 ADD SWAP1 PUSH1 0x20 ADD DUP1 DUP4 GT PUSH2 0xA4A JUMPI DUP3 SWAP1 SUB PUSH1 0x1F AND DUP3 ADD SWAP2 JUMPDEST POP POP POP POP POP SWAP6 POP SWAP8 POP SWAP8 POP SWAP8 POP SWAP8 POP SWAP8 POP SWAP8 POP SWAP8 POP POP SWAP2 SWAP4 SWAP6 SWAP8 SWAP1 SWAP3 SWAP5 SWAP7 POP JUMP JUMPDEST PUSH1 0x0 PUSH1 0x20 MSTORE DUP1 PUSH1 0x0 MSTORE PUSH1 0x40 PUSH1 0x0 KECCAK256 PUSH1 0x0 SWAP2 POP SWAP1 POP DUP1 PUSH1 0x0 ADD DUP1 SLOAD PUSH2 0xAAB SWAP1 PUSH2 0x1CCF JUMP JUMPDEST DUP1 PUSH1 0x1F ADD PUSH1 0x20 DUP1 SWAP2 DIV MUL PUSH1 0x20 ADD PUSH1 0x40 MLOAD SWAP1 DUP2 ADD PUSH1 0x40 MSTORE DUP1 SWAP3 SWAP2 SWAP1 DUP2 DUP2 MSTORE PUSH1 0x20 ADD DUP3 DUP1 SLOAD PUSH2 0xAD7 SWAP1 PUSH2 0x1CCF JUMP JUMPDEST DUP1 ISZERO PUSH2 0xB24 JUMPI DUP1 PUSH1 0x1F LT PUSH2 0xAF9 JUMPI PUSH2 0x100 DUP1 DUP4 SLOAD DIV MUL DUP4 MSTORE SWAP2 PUSH1 0x20 ADD SWAP2 PUSH2 0xB24 JUMP JUMPDEST DUP3 ADD SWAP2 SWAP1 PUSH1 0x0 MSTORE PUSH1 0x20 PUSH1 0x0 KECCAK256 SWAP1 JUMPDEST DUP2 SLOAD DUP2 MSTORE SWAP1 PUSH1 0x1 ADD SWAP1 PUSH1 0x20 ADD DUP1 DUP4 GT PUSH2 0xB07 JUMPI DUP3 SWAP1 SUB PUSH1 0x1F AND DUP3 ADD SWAP2 JUMPDEST POP POP POP POP POP SWAP1 DUP1 PUSH1 0x1 ADD DUP1 SLOAD PUSH2 0xB39 SWAP1 PUSH2 0x1CCF JUMP JUMPDEST DUP1 PUSH1 0x1F ADD PUSH1 0x20 DUP1 SWAP2 DIV MUL PUSH1 0x20 ADD PUSH1 0x40 MLOAD SWAP1 DUP2 ADD PUSH1 0x40 MSTORE DUP1 SWAP3 SWAP2 SWAP1 DUP2 DUP2 MSTORE PUSH1 0x20 ADD DUP3 DUP1 SLOAD PUSH2 0xB65 SWAP1 PUSH2 0x1CCF JUMP JUMPDEST DUP1 ISZERO PUSH2 0xBB2 JUMPI DUP1 PUSH1 0x1F LT PUSH2 0xB87 JUMPI PUSH2 0x100 DUP1 DUP4 SLOAD DIV MUL DUP4 MSTORE SWAP2 PUSH1 0x20 ADD SWAP2 PUSH2 0xBB2 JUMP JUMPDEST DUP3 ADD SWAP2 SWAP1 PUSH1 0x0 MSTORE PUSH1 0x20 PUSH1 0x0 KECCAK256 SWAP1 JUMPDEST DUP2 SLOAD DUP2 MSTORE SWAP1 PUSH1 0x1 ADD SWAP1 PUSH1 0x20 ADD DUP1 DUP4 GT PUSH2 0xB95 JUMPI DUP3 SWAP1 SUB PUSH1 0x1F AND DUP3 ADD SWAP2 JUMPDEST POP POP POP POP POP SWAP1 DUP1 PUSH1 0x2 ADD SLOAD SWAP1 DUP1 PUSH1 0x3 ADD PUSH1 0x0 SWAP1 SLOAD SWAP1 PUSH2 0x100 EXP SWAP1 DIV PUSH20 0xFFFFFFFFFFFFFFFFFFFFFFFFFFFFFFFFFFFFFFFF AND SWAP1 DUP1 PUSH1 0x4 ADD PUSH1 0x0 SWAP1 SLOAD SWAP1 PUSH2 0x100 EXP SWAP1 DIV PUSH20 0xFFFFFFFFFFFFFFFFFFFFFFFFFFFFFFFFFFFFFFFF AND SWAP1 DUP1 PUSH1 0x5 ADD SLOAD SWAP1 DUP1 PUSH1 0x6 ADD PUSH1 0x0 SWAP1 SLOAD SWAP1 PUSH2 0x100 EXP SWAP1 DIV PUSH1 0xFF AND SWAP1 DUP1 PUSH1 0x6 ADD PUSH1 0x1 SWAP1 SLOAD SWAP1 PUSH2 0x100 EXP SWAP1 DIV PUSH1 0xFF AND SWAP1 POP DUP9 JUMP JUMPDEST PUSH1 0x3 DUP1 SLOAD PUSH2 0xC47 SWAP1 PUSH2 0x1CCF JUMP JUMPDEST DUP1 PUSH1 0x1F ADD PUSH1 0x20 DUP1 SWAP2 DIV MUL PUSH1 0x20 ADD PUSH1 0x40 MLOAD SWAP1 DUP2 ADD PUSH1 0x40 MSTORE DUP1 SWAP3 SWAP2 SWAP1 DUP2 DUP2 MSTORE PUSH1 0x20 ADD DUP3 DUP1 SLOAD PUSH2 0xC73 SWAP1 PUSH2 0x1CCF JUMP JUMPDEST DUP1 ISZERO PUSH2 0xCC0 JUMPI DUP1 PUSH1 0x1F LT PUSH2 0xC95 JUMPI PUSH2 0x100 DUP1 DUP4 SLOAD DIV MUL DUP4 MSTORE SWAP2 PUSH1 0x20 ADD SWAP2 PUSH2 0xCC0 JUMP JUMPDEST DUP3 ADD SWAP2 SWAP1 PUSH1 0x0 MSTORE PUSH1 0x20 PUSH1 0x0 KECCAK256 SWAP1 JUMPDEST DUP2 SLOAD DUP2 MSTORE SWAP1 PUSH1 0x1 ADD SWAP1 PUSH1 0x20 ADD DUP1 DUP4 GT PUSH2 0xCA3 JUMPI DUP3 SWAP1 SUB PUSH1 0x1F AND DUP3 ADD SWAP2 JUMPDEST POP POP POP POP POP DUP2 JUMP JUMPDEST PUSH1 0x1 PUSH1 0x20 MSTORE DUP2 PUSH1 0x0 MSTORE PUSH1 0x40 PUSH1 0x0 KECCAK256 DUP2 DUP2 SLOAD DUP2 LT PUSH2 0xCE4 JUMPI PUSH1 0x0 DUP1 REVERT JUMPDEST SWAP1 PUSH1 0x0 MSTORE PUSH1 0x20 PUSH1 0x0 KECCAK256 ADD PUSH1 0x0 SWAP2 POP SWAP2 POP POP SLOAD DUP2 JUMP JUMPDEST PUSH1 0x0 DUP1 DUP6 MLOAD GT PUSH2 0xD3E JUMPI PUSH1 0x40 MLOAD PUSH32 0x8C379A000000000000000000000000000000000000000000000000000000000 DUP2 MSTORE PUSH1 0x4 ADD PUSH2 0xD35 SWAP1 PUSH2 0x1EEF JUMP JUMPDEST PUSH1 0x40 MLOAD DUP1 SWAP2 SUB SWAP1 REVERT JUMPDEST PUSH1 0x0 DUP5 MLOAD GT PUSH2 0xD82 JUMPI PUSH1 0x40 MLOAD PUSH32 0x8C379A000000000000000000000000000000000000000000000000000000000 DUP2 MSTORE PUSH1 0x4 ADD PUSH2 0xD79 SWAP1 PUSH2 0x1F5B JUMP JUMPDEST PUSH1 0x40 MLOAD DUP1 SWAP2 SUB SWAP1 REVERT JUMPDEST TIMESTAMP DUP4 GT PUSH2 0xDC4 JUMPI PUSH1 0x40 MLOAD PUSH32 0x8C379A000000000000000000000000000000000000000000000000000000000 DUP2 MSTORE PUSH1 0x4 ADD PUSH2 0xDBB SWAP1 PUSH2 0x1FC7 JUMP JUMPDEST PUSH1 0x40 MLOAD DUP1 SWAP2 SUB SWAP1 REVERT JUMPDEST PUSH1 0x0 CALLVALUE GT PUSH2 0xE07 JUMPI PUSH1 0x40 MLOAD PUSH32 0x8C379A000000000000000000000000000000000000000000000000000000000 DUP2 MSTORE PUSH1 0x4 ADD PUSH2 0xDFE SWAP1 PUSH2 0x2033 JUMP JUMPDEST PUSH1 0x40 MLOAD DUP1 SWAP2 SUB SWAP1 REVERT JUMPDEST PUSH1 0x0 PUSH20 0xFFFFFFFFFFFFFFFFFFFFFFFFFFFFFFFFFFFFFFFF AND DUP3 PUSH20 0xFFFFFFFFFFFFFFFFFFFFFFFFFFFFFFFFFFFFFFFF AND SUB PUSH2 0xE76 JUMPI PUSH1 0x40 MLOAD PUSH32 0x8C379A000000000000000000000000000000000000000000000000000000000 DUP2 MSTORE PUSH1 0x4 ADD PUSH2 0xE6D SWAP1 PUSH2 0x209F JUMP JUMPDEST PUSH1 0x40 MLOAD DUP1 SWAP2 SUB SWAP1 REVERT JUMPDEST CALLER DUP3 DUP7 DUP6 TIMESTAMP PUSH1 0x40 MLOAD PUSH1 0x20 ADD PUSH2 0xE8F SWAP6 SWAP5 SWAP4 SWAP3 SWAP2 SWAP1 PUSH2 0x2164 JUMP JUMPDEST PUSH1 0x40 MLOAD PUSH1 0x20 DUP2 DUP4 SUB SUB DUP2 MSTORE SWAP1 PUSH1 0x40 MSTORE DUP1 MLOAD SWAP1 PUSH1 0x20 ADD KECCAK256 SWAP1 POP PUSH1 0x0 DUP1 DUP3 DUP2 MSTORE PUSH1 0x20 ADD SWAP1 DUP2 MSTORE PUSH1 0x20 ADD PUSH1 0x0 KECCAK256 PUSH1 0x6 ADD PUSH1 0x1 SWAP1 SLOAD SWAP1 PUSH2 0x100 EXP SWAP1 DIV PUSH1 0xFF AND ISZERO PUSH2 0xF0A JUMPI PUSH1 0x40 MLOAD PUSH32 0x8C379A000000000000000000000000000000000000000000000000000000000 DUP2 MSTORE PUSH1 0x4 ADD PUSH2 0xF01 SWAP1 PUSH2 0x220B JUMP JUMPDEST PUSH1 0x40 MLOAD DUP1 SWAP2 SUB SWAP1 REVERT JUMPDEST PUSH1 0x40 MLOAD DUP1 PUSH2 0x100 ADD PUSH1 0x40 MSTORE DUP1 DUP7 DUP2 MSTORE PUSH1 0x20 ADD DUP6 DUP2 MSTORE PUSH1 0x20 ADD DUP5 DUP2 MSTORE PUSH1 0x20 ADD CALLER PUSH20 0xFFFFFFFFFFFFFFFFFFFFFFFFFFFFFFFFFFFFFFFF AND DUP2 MSTORE PUSH1 0x20 ADD DUP4 PUSH20 0xFFFFFFFFFFFFFFFFFFFFFFFFFFFFFFFFFFFFFFFF AND DUP2 MSTORE PUSH1 0x20 ADD CALLVALUE DUP2 MSTORE PUSH1 0x20 ADD PUSH1 0x0 ISZERO ISZERO DUP2 MSTORE PUSH1 0x20 ADD PUSH1 0x1 ISZERO ISZERO DUP2 MSTORE POP PUSH1 0x0 DUP1 DUP4 DUP2 MSTORE PUSH1 0x20 ADD SWAP1 DUP2 MSTORE PUSH1 0x20 ADD PUSH1 0x0 KECCAK256 PUSH1 0x0 DUP3 ADD MLOAD DUP2 PUSH1 0x0 ADD SWAP1 DUP2 PUSH2 0xF9D SWAP2 SWAP1 PUSH2 0x23C2 JUMP JUMPDEST POP PUSH1 0x20 DUP3 ADD MLOAD DUP2 PUSH1 0x1 ADD SWAP1 DUP2 PUSH2 0xFB3 SWAP2 SWAP1 PUSH2 0x23C2 JUMP JUMPDEST POP PUSH1 0x40 DUP3 ADD MLOAD DUP2 PUSH1 0x2 ADD SSTORE PUSH1 0x60 DUP3 ADD MLOAD DUP2 PUSH1 0x3 ADD PUSH1 0x0 PUSH2 0x100 EXP DUP2 SLOAD DUP2 PUSH20 0xFFFFFFFFFFFFFFFFFFFFFFFFFFFFFFFFFFFFFFFF MUL NOT AND SWAP1 DUP4 PUSH20 0xFFFFFFFFFFFFFFFFFFFFFFFFFFFFFFFFFFFFFFFF AND MUL OR SWAP1 SSTORE POP PUSH1 0x80 DUP3 ADD MLOAD DUP2 PUSH1 0x4 ADD PUSH1 0x0 PUSH2 0x100 EXP DUP2 SLOAD DUP2 PUSH20 0xFFFFFFFFFFFFFFFFFFFFFFFFFFFFFFFFFFFFFFFF MUL NOT AND SWAP1 DUP4 PUSH20 0xFFFFFFFFFFFFFFFFFFFFFFFFFFFFFFFFFFFFFFFF AND MUL OR SWAP1 SSTORE POP PUSH1 0xA0 DUP3 ADD MLOAD DUP2 PUSH1 0x5 ADD SSTORE PUSH1 0xC0 DUP3 ADD MLOAD DUP2 PUSH1 0x6 ADD PUSH1 0x0 PUSH2 0x100 EXP DUP2 SLOAD DUP2 PUSH1 0xFF MUL NOT AND SWAP1 DUP4 ISZERO ISZERO MUL OR SWAP1 SSTORE POP PUSH1 0xE0 DUP3 ADD MLOAD DUP2 PUSH1 0x6 ADD PUSH1 0x1 PUSH2 0x100 EXP DUP2 SLOAD DUP2 PUSH1 0xFF MUL NOT AND SWAP1 DUP4 ISZERO ISZERO MUL OR SWAP1 SSTORE POP SWAP1 POP POP PUSH1 0x1 PUSH1 0x0 CALLER PUSH20 0xFFFFFFFFFFFFFFFFFFFFFFFFFFFFFFFFFFFFFFFF AND PUSH20 0xFFFFFFFFFFFFFFFFFFFFFFFFFFFFFFFFFFFFFFFF AND DUP2 MSTORE PUSH1 0x20 ADD SWAP1 DUP2 MSTORE PUSH1 0x20 ADD PUSH1 0x0 KECCAK256 DUP2 SWAP1 DUP1 PUSH1 0x1 DUP2 SLOAD ADD DUP1 DUP3 SSTORE DUP1 SWAP2 POP POP PUSH1 0x1 SWAP1 SUB SWAP1 PUSH1 0x0 MSTORE PUSH1 0x20 PUSH1 0x0 KECCAK256 ADD PUSH1 0x0 SWAP1 SWAP2 SWAP1 SWAP2 SWAP1 SWAP2 POP SSTORE PUSH1 0x2 PUSH1 0x0 DUP4 PUSH20 0xFFFFFFFFFFFFFFFFFFFFFFFFFFFFFFFFFFFFFFFF AND PUSH20 0xFFFFFFFFFFFFFFFFFFFFFFFFFFFFFFFFFFFFFFFF AND DUP2 MSTORE PUSH1 0x20 ADD SWAP1 DUP2 MSTORE PUSH1 0x20 ADD PUSH1 0x0 KECCAK256 DUP2 SWAP1 DUP1 PUSH1 0x1 DUP2 SLOAD ADD DUP1 DUP3 SSTORE DUP1 SWAP2 POP POP PUSH1 0x1 SWAP1 SUB SWAP1 PUSH1 0x0 MSTORE PUSH1 0x20 PUSH1 0x0 KECCAK256 ADD PUSH1 0x0 SWAP1 SWAP2 SWAP1 SWAP2 SWAP1 SWAP2 POP SSTORE DUP2 PUSH20 0xFFFFFFFFFFFFFFFFFFFFFFFFFFFFFFFFFFFFFFFF AND CALLER PUSH20 0xFFFFFFFFFFFFFFFFFFFFFFFFFFFFFFFFFFFFFFFF AND DUP3 PUSH32 0xD80F07F08F33DA95C0E90A3767D38047EF1D66F56058E94B7100D54C72E36BB DUP9 DUP8 CALLVALUE PUSH1 0x40 MLOAD PUSH2 0x11C7 SWAP4 SWAP3 SWAP2 SWAP1 PUSH2 0x2494 JUMP JUMPDEST PUSH1 0x40 MLOAD DUP1 SWAP2 SUB SWAP1 LOG4 SWAP5 SWAP4 POP POP POP POP JUMP JUMPDEST PUSH1 0x2 PUSH1 0x20 MSTORE DUP2 PUSH1 0x0 MSTORE PUSH1 0x40 PUSH1 0x0 KECCAK256 DUP2 DUP2 SLOAD DUP2 LT PUSH2 0x11F3 JUMPI PUSH1 0x0 DUP1 REVERT JUMPDEST SWAP1 PUSH1 0x0 MSTORE PUSH1 0x20 PUSH1 0x0 KECCAK256 ADD PUSH1 0x0 SWAP2 POP SWAP2 POP POP SLOAD DUP2 JUMP JUMPDEST PUSH1 0x0 DUP1 PUSH1 0x0 DUP4 DUP2 MSTORE PUSH1 0x20 ADD SWAP1 DUP2 MSTORE PUSH1 0x20 ADD PUSH1 0x0 KECCAK256 SWAP1 POP DUP1 PUSH1 0x6 ADD PUSH1 0x1 SWAP1 SLOAD SWAP1 PUSH2 0x100 EXP SWAP1 DIV PUSH1 0xFF AND PUSH2 0x126F JUMPI PUSH1 0x40 MLOAD PUSH32 0x8C379A000000000000000000000000000000000000000000000000000000000 DUP2 MSTORE PUSH1 0x4 ADD PUSH2 0x1266 SWAP1 PUSH2 0x1B82 JUMP JUMPDEST PUSH1 0x40 MLOAD DUP1 SWAP2 SUB SWAP1 REVERT JUMPDEST CALLER PUSH20 0xFFFFFFFFFFFFFFFFFFFFFFFFFFFFFFFFFFFFFFFF AND DUP2 PUSH1 0x3 ADD PUSH1 0x0 SWAP1 SLOAD SWAP1 PUSH2 0x100 EXP SWAP1 DIV PUSH20 0xFFFFFFFFFFFFFFFFFFFFFFFFFFFFFFFFFFFFFFFF AND PUSH20 0xFFFFFFFFFFFFFFFFFFFFFFFFFFFFFFFFFFFFFFFF AND EQ DUP1 PUSH2 0x131C JUMPI POP CALLER PUSH20 0xFFFFFFFFFFFFFFFFFFFFFFFFFFFFFFFFFFFFFFFF AND DUP2 PUSH1 0x4 ADD PUSH1 0x0 SWAP1 SLOAD SWAP1 PUSH2 0x100 EXP SWAP1 DIV PUSH20 0xFFFFFFFFFFFFFFFFFFFFFFFFFFFFFFFFFFFFFFFF AND PUSH20 0xFFFFFFFFFFFFFFFFFFFFFFFFFFFFFFFFFFFFFFFF AND EQ JUMPDEST PUSH2 0x135B JUMPI PUSH1 0x40 MLOAD PUSH32 0x8C379A000000000000000000000000000000000000000000000000000000000 DUP2 MSTORE PUSH1 0x4 ADD PUSH2 0x1352 SWAP1 PUSH2 0x1C14 JUMP JUMPDEST PUSH1 0x40 MLOAD DUP1 SWAP2 SUB SWAP1 REVERT JUMPDEST DUP1 PUSH1 0x6 ADD PUSH1 0x0 SWAP1 SLOAD SWAP1 PUSH2 0x100 EXP SWAP1 DIV PUSH1 0xFF AND ISZERO PUSH2 0x13AD JUMPI PUSH1 0x40 MLOAD PUSH32 0x8C379A000000000000000000000000000000000000000000000000000000000 DUP2 MSTORE PUSH1 0x4 ADD PUSH2 0x13A4 SWAP1 PUSH2 0x1C80 JUMP JUMPDEST PUSH1 0x40 MLOAD DUP1 SWAP2 SUB SWAP1 REVERT JUMPDEST DUP1 PUSH1 0x2 ADD SLOAD TIMESTAMP LT ISZERO PUSH2 0x13F4 JUMPI PUSH1 0x40 MLOAD PUSH32 0x8C379A000000000000000000000000000000000000000000000000000000000 DUP2 MSTORE PUSH1 0x4 ADD PUSH2 0x13EB SWAP1 PUSH2 0x251E JUMP JUMPDEST PUSH1 0x40 MLOAD DUP1 SWAP2 SUB SWAP1 REVERT JUMPDEST PUSH1 0x1 DUP2 PUSH1 0x6 ADD PUSH1 0x0 PUSH2 0x100 EXP DUP2 SLOAD DUP2 PUSH1 0xFF MUL NOT AND SWAP1 DUP4 ISZERO ISZERO MUL OR SWAP1 SSTORE POP DUP1 PUSH1 0x3 ADD PUSH1 0x0 SWAP1 SLOAD SWAP1 PUSH2 0x100 EXP SWAP1 DIV PUSH20 0xFFFFFFFFFFFFFFFFFFFFFFFFFFFFFFFFFFFFFFFF AND PUSH20 0xFFFFFFFFFFFFFFFFFFFFFFFFFFFFFFFFFFFFFFFF AND PUSH2 0x8FC DUP3 PUSH1 0x5 ADD SLOAD SWAP1 DUP2 ISZERO MUL SWAP1 PUSH1 0x40 MLOAD PUSH1 0x0 PUSH1 0x40 MLOAD DUP1 DUP4 SUB DUP2 DUP6 DUP9 DUP9 CALL SWAP4 POP POP POP POP ISZERO DUP1 ISZERO PUSH2 0x147F JUMPI RETURNDATASIZE PUSH1 0x0 DUP1 RETURNDATACOPY RETURNDATASIZE PUSH1 0x0 REVERT JUMPDEST POP DUP1 PUSH1 0x3 ADD PUSH1 0x0 SWAP1 SLOAD SWAP1 PUSH2 0x100 EXP SWAP1 DIV PUSH20 0xFFFFFFFFFFFFFFFFFFFFFFFFFFFFFFFFFFFFFFFF AND PUSH20 0xFFFFFFFFFFFFFFFFFFFFFFFFFFFFFFFFFFFFFFFF AND DUP3 PUSH32 0xE4ED238330CAAE54CB454153824EB4D83B179B43554FC8D06DCBFD8C7F72CAD1 PUSH1 0x40 MLOAD PUSH1 0x40 MLOAD DUP1 SWAP2 SUB SWAP1 LOG3 POP POP JUMP JUMPDEST PUSH1 0x0 PUSH1 0x40 MLOAD SWAP1 POP SWAP1 JUMP JUMPDEST PUSH1 0x0 DUP1 REVERT JUMPDEST PUSH1 0x0 DUP1 REVERT JUMPDEST PUSH1 0x0 DUP2 SWAP1 POP SWAP2 SWAP1 POP JUMP JUMPDEST PUSH2 0x1513 DUP2 PUSH2 0x1500 JUMP JUMPDEST DUP2 EQ PUSH2 0x151E JUMPI PUSH1 0x0 DUP1 REVERT JUMPDEST POP JUMP JUMPDEST PUSH1 0x0 DUP2 CALLDATALOAD SWAP1 POP PUSH2 0x1530 DUP2 PUSH2 0x150A JUMP JUMPDEST SWAP3 SWAP2 POP POP JUMP JUMPDEST PUSH1 0x0 PUSH1 0x20 DUP3 DUP5 SUB SLT ISZERO PUSH2 0x154C JUMPI PUSH2 0x154B PUSH2 0x14F6 JUMP JUMPDEST JUMPDEST PUSH1 0x0 PUSH2 0x155A DUP5 DUP3 DUP6 ADD PUSH2 0x1521 JUMP JUMPDEST SWAP2 POP POP SWAP3 SWAP2 POP POP JUMP JUMPDEST PUSH1 0x0 PUSH20 0xFFFFFFFFFFFFFFFFFFFFFFFFFFFFFFFFFFFFFFFF DUP3 AND SWAP1 POP SWAP2 SWAP1 POP JUMP JUMPDEST PUSH1 0x0 PUSH2 0x158E DUP3 PUSH2 0x1563 JUMP JUMPDEST SWAP1 POP SWAP2 SWAP1 POP JUMP JUMPDEST PUSH2 0x159E DUP2 PUSH2 0x1583 JUMP JUMPDEST DUP2 EQ PUSH2 0x15A9 JUMPI PUSH1 0x0 DUP1 REVERT JUMPDEST POP JUMP JUMPDEST PUSH1 0x0 DUP2 CALLDATALOAD SWAP1 POP PUSH2 0x15BB DUP2 PUSH2 0x1595 JUMP JUMPDEST SWAP3 SWAP2 POP POP JUMP JUMPDEST PUSH1 0x0 PUSH1 0x20 DUP3 DUP5 SUB SLT ISZERO PUSH2 0x15D7 JUMPI PUSH2 0x15D6 PUSH2 0x14F6 JUMP JUMPDEST JUMPDEST PUSH1 0x0 PUSH2 0x15E5 DUP5 DUP3 DUP6 ADD PUSH2 0x15AC JUMP JUMPDEST SWAP2 POP POP SWAP3 SWAP2 POP POP JUMP JUMPDEST PUSH1 0x0 DUP2 MLOAD SWAP1 POP SWAP2 SWAP1 POP JUMP JUMPDEST PUSH1 0x0 DUP3 DUP3 MSTORE PUSH1 0x20 DUP3 ADD SWAP1 POP SWAP3 SWAP2 POP POP JUMP JUMPDEST PUSH1 0x0 DUP2 SWAP1 POP PUSH1 0x20 DUP3 ADD SWAP1 POP SWAP2 SWAP1 POP JUMP JUMPDEST PUSH2 0x1623 DUP2 PUSH2 0x1500 JUMP JUMPDEST DUP3 MSTORE POP POP JUMP JUMPDEST PUSH1 0x0 PUSH2 0x1635 DUP4 DUP4 PUSH2 0x161A JUMP JUMPDEST PUSH1 0x20 DUP4 ADD SWAP1 POP SWAP3 SWAP2 POP POP JUMP JUMPDEST PUSH1 0x0 PUSH1 0x20 DUP3 ADD SWAP1 POP SWAP2 SWAP1 POP JUMP JUMPDEST PUSH1 0x0 PUSH2 0x1659 DUP3 PUSH2 0x15EE JUMP JUMPDEST PUSH2 0x1663 DUP2 DUP6 PUSH2 0x15F9 JUMP JUMPDEST SWAP4 POP PUSH2 0x166E DUP4 PUSH2 0x160A JUMP JUMPDEST DUP1 PUSH1 0x0 JUMPDEST DUP4 DUP2 LT ISZERO PUSH2 0x169F JUMPI DUP2 MLOAD PUSH2 0x1686 DUP9 DUP3 PUSH2 0x1629 JUMP JUMPDEST SWAP8 POP PUSH2 0x1691 DUP4 PUSH2 0x1641 JUMP JUMPDEST SWAP3 POP POP PUSH1 0x1 DUP2 ADD SWAP1 POP PUSH2 0x1672 JUMP JUMPDEST POP DUP6 SWAP4 POP POP POP POP SWAP3 SWAP2 POP POP JUMP JUMPDEST PUSH1 0x0 PUSH1 0x20 DUP3 ADD SWAP1 POP DUP2 DUP2 SUB PUSH1 0x0 DUP4 ADD MSTORE PUSH2 0x16C6 DUP2 DUP5 PUSH2 0x164E JUMP JUMPDEST SWAP1 POP SWAP3 SWAP2 POP POP JUMP JUMPDEST PUSH1 0x0 DUP2 MLOAD SWAP1 POP SWAP2 SWAP1 POP JUMP JUMPDEST PUSH1 0x0 DUP3 DUP3 MSTORE PUSH1 0x20 DUP3 ADD SWAP1 POP SWAP3 SWAP2 POP POP JUMP JUMPDEST PUSH1 0x0 JUMPDEST DUP4 DUP2 LT ISZERO PUSH2 0x1708 JUMPI DUP1 DUP3 ADD MLOAD DUP2 DUP5 ADD MSTORE PUSH1 0x20 DUP2 ADD SWAP1 POP PUSH2 0x16ED JUMP JUMPDEST PUSH1 0x0 DUP5 DUP5 ADD MSTORE POP POP POP POP JUMP JUMPDEST PUSH1 0x0 PUSH1 0x1F NOT PUSH1 0x1F DUP4 ADD AND SWAP1 POP SWAP2 SWAP1 POP JUMP JUMPDEST PUSH1 0x0 PUSH2 0x1730 DUP3 PUSH2 0x16CE JUMP JUMPDEST PUSH2 0x173A DUP2 DUP6 PUSH2 0x16D9 JUMP JUMPDEST SWAP4 POP PUSH2 0x174A DUP2 DUP6 PUSH1 0x20 DUP7 ADD PUSH2 0x16EA JUMP JUMPDEST PUSH2 0x1753 DUP2 PUSH2 0x1714 JUMP JUMPDEST DUP5 ADD SWAP2 POP POP SWAP3 SWAP2 POP POP JUMP JUMPDEST PUSH1 0x0 DUP2 SWAP1 POP SWAP2 SWAP1 POP JUMP JUMPDEST PUSH2 0x1771 DUP2 PUSH2 0x175E JUMP JUMPDEST DUP3 MSTORE POP POP JUMP JUMPDEST PUSH2 0x1780 DUP2 PUSH2 0x1583 JUMP JUMPDEST DUP3 MSTORE POP POP JUMP JUMPDEST PUSH1 0x0 DUP2 ISZERO ISZERO SWAP1 POP SWAP2 SWAP1 POP JUMP JUMPDEST PUSH2 0x179B DUP2 PUSH2 0x1786 JUMP JUMPDEST DUP3 MSTORE POP POP JUMP JUMPDEST PUSH1 0x0 PUSH1 0xE0 DUP3 ADD SWAP1 POP DUP2 DUP2 SUB PUSH1 0x0 DUP4 ADD MSTORE PUSH2 0x17BB DUP2 DUP11 PUSH2 0x1725 JUMP JUMPDEST SWAP1 POP DUP2 DUP2 SUB PUSH1 0x20 DUP4 ADD MSTORE PUSH2 0x17CF DUP2 DUP10 PUSH2 0x1725 JUMP JUMPDEST SWAP1 POP PUSH2 0x17DE PUSH1 0x40 DUP4 ADD DUP9 PUSH2 0x1768 JUMP JUMPDEST PUSH2 0x17EB PUSH1 0x60 DUP4 ADD DUP8 PUSH2 0x1777 JUMP JUMPDEST PUSH2 0x17F8 PUSH1 0x80 DUP4 ADD DUP7 PUSH2 0x1777 JUMP JUMPDEST PUSH2 0x1805 PUSH1 0xA0 DUP4 ADD DUP6 PUSH2 0x1768 JUMP JUMPDEST PUSH2 0x1812 PUSH1 0xC0 DUP4 ADD DUP5 PUSH2 0x1792 JUMP JUMPDEST SWAP9 SWAP8 POP POP POP POP POP POP POP POP JUMP JUMPDEST PUSH1 0x0 PUSH2 0x100 DUP3 ADD SWAP1 POP DUP2 DUP2 SUB PUSH1 0x0 DUP4 ADD MSTORE PUSH2 0x1839 DUP2 DUP12 PUSH2 0x1725 JUMP JUMPDEST SWAP1 POP DUP2 DUP2 SUB PUSH1 0x20 DUP4 ADD MSTORE PUSH2 0x184D DUP2 DUP11 PUSH2 0x1725 JUMP JUMPDEST SWAP1 POP PUSH2 0x185C PUSH1 0x40 DUP4 ADD DUP10 PUSH2 0x1768 JUMP JUMPDEST PUSH2 0x1869 PUSH1 0x60 DUP4 ADD DUP9 PUSH2 0x1777 JUMP JUMPDEST PUSH2 0x1876 PUSH1 0x80 DUP4 ADD DUP8 PUSH2 0x1777 JUMP JUMPDEST PUSH2 0x1883 PUSH1 0xA0 DUP4 ADD DUP7 PUSH2 0x1768 JUMP JUMPDEST PUSH2 0x1890 PUSH1 0xC0 DUP4 ADD DUP6 PUSH2 0x1792 JUMP JUMPDEST PUSH2 0x189D PUSH1 0xE0 DUP4 ADD DUP5 PUSH2 0x1792 JUMP JUMPDEST SWAP10 SWAP9 POP POP POP POP POP POP POP POP POP JUMP JUMPDEST PUSH1 0x0 PUSH1 0x20 DUP3 ADD SWAP1 POP DUP2 DUP2 SUB PUSH1 0x0 DUP4 ADD MSTORE PUSH2 0x18C4 DUP2 DUP5 PUSH2 0x1725 JUMP JUMPDEST SWAP1 POP SWAP3 SWAP2 POP POP JUMP JUMPDEST PUSH2 0x18D5 DUP2 PUSH2 0x175E JUMP JUMPDEST DUP2 EQ PUSH2 0x18E0 JUMPI PUSH1 0x0 DUP1 REVERT JUMPDEST POP JUMP JUMPDEST PUSH1 0x0 DUP2 CALLDATALOAD SWAP1 POP PUSH2 0x18F2 DUP2 PUSH2 0x18CC JUMP JUMPDEST SWAP3 SWAP2 POP POP JUMP JUMPDEST PUSH1 0x0 DUP1 PUSH1 0x40 DUP4 DUP6 SUB SLT ISZERO PUSH2 0x190F JUMPI PUSH2 0x190E PUSH2 0x14F6 JUMP JUMPDEST JUMPDEST PUSH1 0x0 PUSH2 0x191D DUP6 DUP3 DUP7 ADD PUSH2 0x15AC JUMP JUMPDEST SWAP3 POP POP PUSH1 0x20 PUSH2 0x192E DUP6 DUP3 DUP7 ADD PUSH2 0x18E3 JUMP JUMPDEST SWAP2 POP POP SWAP3 POP SWAP3 SWAP1 POP JUMP JUMPDEST PUSH2 0x1941 DUP2 PUSH2 0x1500 JUMP JUMPDEST DUP3 MSTORE POP POP JUMP JUMPDEST PUSH1 0x0 PUSH1 0x20 DUP3 ADD SWAP1 POP PUSH2 0x195C PUSH1 0x0 DUP4 ADD DUP5 PUSH2 0x1938 JUMP JUMPDEST SWAP3 SWAP2 POP POP JUMP JUMPDEST PUSH1 0x0 DUP1 REVERT JUMPDEST PUSH1 0x0 DUP1 REVERT JUMPDEST PUSH32 0x4E487B7100000000000000000000000000000000000000000000000000000000 PUSH1 0x0 MSTORE PUSH1 0x41 PUSH1 0x4 MSTORE PUSH1 0x24 PUSH1 0x0 REVERT JUMPDEST PUSH2 0x19A4 DUP3 PUSH2 0x1714 JUMP JUMPDEST DUP2 ADD DUP2 DUP2 LT PUSH8 0xFFFFFFFFFFFFFFFF DUP3 GT OR ISZERO PUSH2 0x19C3 JUMPI PUSH2 0x19C2 PUSH2 0x196C JUMP JUMPDEST JUMPDEST DUP1 PUSH1 0x40 MSTORE POP POP POP JUMP JUMPDEST PUSH1 0x0 PUSH2 0x19D6 PUSH2 0x14EC JUMP JUMPDEST SWAP1 POP PUSH2 0x19E2 DUP3 DUP3 PUSH2 0x199B JUMP JUMPDEST SWAP2 SWAP1 POP JUMP JUMPDEST PUSH1 0x0 PUSH8 0xFFFFFFFFFFFFFFFF DUP3 GT ISZERO PUSH2 0x1A02 JUMPI PUSH2 0x1A01 PUSH2 0x196C JUMP JUMPDEST JUMPDEST PUSH2 0x1A0B DUP3 PUSH2 0x1714 JUMP JUMPDEST SWAP1 POP PUSH1 0x20 DUP2 ADD SWAP1 POP SWAP2 SWAP1 POP JUMP JUMPDEST DUP3 DUP2 DUP4 CALLDATACOPY PUSH1 0x0 DUP4 DUP4 ADD MSTORE POP POP POP JUMP JUMPDEST PUSH1 0x0 PUSH2 0x1A3A PUSH2 0x1A35 DUP5 PUSH2 0x19E7 JUMP JUMPDEST PUSH2 0x19CC JUMP JUMPDEST SWAP1 POP DUP3 DUP2 MSTORE PUSH1 0x20 DUP2 ADD DUP5 DUP5 DUP5 ADD GT ISZERO PUSH2 0x1A56 JUMPI PUSH2 0x1A55 PUSH2 0x1967 JUMP JUMPDEST JUMPDEST PUSH2 0x1A61 DUP5 DUP3 DUP6 PUSH2 0x1A18 JUMP JUMPDEST POP SWAP4 SWAP3 POP POP POP JUMP JUMPDEST PUSH1 0x0 DUP3 PUSH1 0x1F DUP4 ADD SLT PUSH2 0x1A7E JUMPI PUSH2 0x1A7D PUSH2 0x1962 JUMP JUMPDEST JUMPDEST DUP2 CALLDATALOAD PUSH2 0x1A8E DUP5 DUP3 PUSH1 0x20 DUP7 ADD PUSH2 0x1A27 JUMP JUMPDEST SWAP2 POP POP SWAP3 SWAP2 POP POP JUMP JUMPDEST PUSH1 0x0 DUP1 PUSH1 0x0 DUP1 PUSH1 0x80 DUP6 DUP8 SUB SLT ISZERO PUSH2 0x1AB1 JUMPI PUSH2 0x1AB0 PUSH2 0x14F6 JUMP JUMPDEST JUMPDEST PUSH1 0x0 DUP6 ADD CALLDATALOAD PUSH8 0xFFFFFFFFFFFFFFFF DUP2 GT ISZERO PUSH2 0x1ACF JUMPI PUSH2 0x1ACE PUSH2 0x14FB JUMP JUMPDEST JUMPDEST PUSH2 0x1ADB DUP8 DUP3 DUP9 ADD PUSH2 0x1A69 JUMP JUMPDEST SWAP5 POP POP PUSH1 0x20 DUP6 ADD CALLDATALOAD PUSH8 0xFFFFFFFFFFFFFFFF DUP2 GT ISZERO PUSH2 0x1AFC JUMPI PUSH2 0x1AFB PUSH2 0x14FB JUMP JUMPDEST JUMPDEST PUSH2 0x1B08 DUP8 DUP3 DUP9 ADD PUSH2 0x1A69 JUMP JUMPDEST SWAP4 POP POP PUSH1 0x40 PUSH2 0x1B19 DUP8 DUP3 DUP9 ADD PUSH2 0x18E3 JUMP JUMPDEST SWAP3 POP POP PUSH1 0x60 PUSH2 0x1B2A DUP8 DUP3 DUP9 ADD PUSH2 0x15AC JUMP JUMPDEST SWAP2 POP POP SWAP3 SWAP6 SWAP2 SWAP5 POP SWAP3 POP JUMP JUMPDEST PUSH32 0x46696C6520646F65736E27742065786973740000000000000000000000000000 PUSH1 0x0 DUP3 ADD MSTORE POP JUMP JUMPDEST PUSH1 0x0 PUSH2 0x1B6C PUSH1 0x12 DUP4 PUSH2 0x16D9 JUMP JUMPDEST SWAP2 POP PUSH2 0x1B77 DUP3 PUSH2 0x1B36 JUMP JUMPDEST PUSH1 0x20 DUP3 ADD SWAP1 POP SWAP2 SWAP1 POP JUMP JUMPDEST PUSH1 0x0 PUSH1 0x20 DUP3 ADD SWAP1 POP DUP2 DUP2 SUB PUSH1 0x0 DUP4 ADD MSTORE PUSH2 0x1B9B DUP2 PUSH2 0x1B5F JUMP JUMPDEST SWAP1 POP SWAP2 SWAP1 POP JUMP JUMPDEST PUSH32 0x4F6E6C79206F776E6572206F7220726563697069656E742063616E20756E6C6F PUSH1 0x0 DUP3 ADD MSTORE PUSH32 0x636B000000000000000000000000000000000000000000000000000000000000 PUSH1 0x20 DUP3 ADD MSTORE POP JUMP JUMPDEST PUSH1 0x0 PUSH2 0x1BFE PUSH1 0x22 DUP4 PUSH2 0x16D9 JUMP JUMPDEST SWAP2 POP PUSH2 0x1C09 DUP3 PUSH2 0x1BA2 JUMP JUMPDEST PUSH1 0x40 DUP3 ADD SWAP1 POP SWAP2 SWAP1 POP JUMP JUMPDEST PUSH1 0x0 PUSH1 0x20 DUP3 ADD SWAP1 POP DUP2 DUP2 SUB PUSH1 0x0 DUP4 ADD MSTORE PUSH2 0x1C2D DUP2 PUSH2 0x1BF1 JUMP JUMPDEST SWAP1 POP SWAP2 SWAP1 POP JUMP JUMPDEST PUSH32 0x416C726561647920756E6C6F636B656400000000000000000000000000000000 PUSH1 0x0 DUP3 ADD MSTORE POP JUMP JUMPDEST PUSH1 0x0 PUSH2 0x1C6A PUSH1 0x10 DUP4 PUSH2 0x16D9 JUMP JUMPDEST SWAP2 POP PUSH2 0x1C75 DUP3 PUSH2 0x1C34 JUMP JUMPDEST PUSH1 0x20 DUP3 ADD SWAP1 POP SWAP2 SWAP1 POP JUMP JUMPDEST PUSH1 0x0 PUSH1 0x20 DUP3 ADD SWAP1 POP DUP2 DUP2 SUB PUSH1 0x0 DUP4 ADD MSTORE PUSH2 0x1C99 DUP2 PUSH2 0x1C5D JUMP JUMPDEST SWAP1 POP SWAP2 SWAP1 POP JUMP JUMPDEST PUSH32 0x4E487B7100000000000000000000000000000000000000000000000000000000 PUSH1 0x0 MSTORE PUSH1 0x22 PUSH1 0x4 MSTORE PUSH1 0x24 PUSH1 0x0 REVERT JUMPDEST PUSH1 0x0 PUSH1 0x2 DUP3 DIV SWAP1 POP PUSH1 0x1 DUP3 AND DUP1 PUSH2 0x1CE7 JUMPI PUSH1 0x7F DUP3 AND SWAP2 POP JUMPDEST PUSH1 0x20 DUP3 LT DUP2 SUB PUSH2 0x1CFA JUMPI PUSH2 0x1CF9 PUSH2 0x1CA0 JUMP JUMPDEST JUMPDEST POP SWAP2 SWAP1 POP JUMP JUMPDEST PUSH1 0x0 DUP2 SWAP1 POP DUP2 PUSH1 0x0 MSTORE PUSH1 0x20 PUSH1 0x0 KECCAK256 SWAP1 POP SWAP2 SWAP1 POP JUMP JUMPDEST PUSH1 0x0 DUP2 SLOAD PUSH2 0x1D22 DUP2 PUSH2 0x1CCF JUMP JUMPDEST PUSH2 0x1D2C DUP2 DUP7 PUSH2 0x16D9 JUMP JUMPDEST SWAP5 POP PUSH1 0x1 DUP3 AND PUSH1 0x0 DUP2 EQ PUSH2 0x1D47 JUMPI PUSH1 0x1 DUP2 EQ PUSH2 0x1D5D JUMPI PUSH2 0x1D90 JUMP JUMPDEST PUSH1 0xFF NOT DUP4 AND DUP7 MSTORE DUP2 ISZERO ISZERO PUSH1 0x20 MUL DUP7 ADD SWAP4 POP PUSH2 0x1D90 JUMP JUMPDEST PUSH2 0x1D66 DUP6 PUSH2 0x1D00 JUMP JUMPDEST PUSH1 0x0 JUMPDEST DUP4 DUP2 LT ISZERO PUSH2 0x1D88 JUMPI DUP2 SLOAD DUP2 DUP10 ADD MSTORE PUSH1 0x1 DUP3 ADD SWAP2 POP PUSH1 0x20 DUP2 ADD SWAP1 POP PUSH2 0x1D69 JUMP JUMPDEST DUP1 DUP9 ADD SWAP6 POP POP POP JUMPDEST POP POP POP SWAP3 SWAP2 POP POP JUMP JUMPDEST PUSH1 0x0 PUSH1 0x40 DUP3 ADD SWAP1 POP DUP2 DUP2 SUB PUSH1 0x0 DUP4 ADD MSTORE PUSH2 0x1DB3 DUP2 DUP6 PUSH2 0x1D15 JUMP JUMPDEST SWAP1 POP PUSH2 0x1DC2 PUSH1 0x20 DUP4 ADD DUP5 PUSH2 0x1768 JUMP JUMPDEST SWAP4 SWAP3 POP POP POP JUMP JUMPDEST PUSH32 0x4E487B7100000000000000000000000000000000000000000000000000000000 PUSH1 0x0 MSTORE PUSH1 0x11 PUSH1 0x4 MSTORE PUSH1 0x24 PUSH1 0x0 REVERT JUMPDEST PUSH1 0x0 PUSH2 0x1E03 DUP3 PUSH2 0x175E JUMP JUMPDEST SWAP2 POP PUSH2 0x1E0E DUP4 PUSH2 0x175E JUMP JUMPDEST SWAP3 POP DUP3 DUP3 ADD SWAP1 POP DUP1 DUP3 GT ISZERO PUSH2 0x1E26 JUMPI PUSH2 0x1E25 PUSH2 0x1DC9 JUMP JUMPDEST JUMPDEST SWAP3 SWAP2 POP POP JUMP JUMPDEST PUSH32 0x4E487B7100000000000000000000000000000000000000000000000000000000 PUSH1 0x0 MSTORE PUSH1 0x32 PUSH1 0x4 MSTORE PUSH1 0x24 PUSH1 0x0 REVERT JUMPDEST PUSH1 0x0 PUSH2 0x1E66 DUP3 PUSH2 0x175E JUMP JUMPDEST SWAP2 POP PUSH32 0xFFFFFFFFFFFFFFFFFFFFFFFFFFFFFFFFFFFFFFFFFFFFFFFFFFFFFFFFFFFFFFFF DUP3 SUB PUSH2 0x1E98 JUMPI PUSH2 0x1E97 PUSH2 0x1DC9 JUMP JUMPDEST JUMPDEST PUSH1 0x1 DUP3 ADD SWAP1 POP SWAP2 SWAP1 POP JUMP JUMPDEST PUSH32 0x4950465320686173682072657175697265640000000000000000000000000000 PUSH1 0x0 DUP3 ADD MSTORE POP JUMP JUMPDEST PUSH1 0x0 PUSH2 0x1ED9 PUSH1 0x12 DUP4 PUSH2 0x16D9 JUMP JUMPDEST SWAP2 POP PUSH2 0x1EE4 DUP3 PUSH2 0x1EA3 JUMP JUMPDEST PUSH1 0x20 DUP3 ADD SWAP1 POP SWAP2 SWAP1 POP JUMP JUMPDEST PUSH1 0x0 PUSH1 0x20 DUP3 ADD SWAP1 POP DUP2 DUP2 SUB PUSH1 0x0 DUP4 ADD MSTORE PUSH2 0x1F08 DUP2 PUSH2 0x1ECC JUMP JUMPDEST SWAP1 POP SWAP2 SWAP1 POP JUMP JUMPDEST PUSH32 0x46696C65206E616D652072657175697265640000000000000000000000000000 PUSH1 0x0 DUP3 ADD MSTORE POP JUMP JUMPDEST PUSH1 0x0 PUSH2 0x1F45 PUSH1 0x12 DUP4 PUSH2 0x16D9 JUMP JUMPDEST SWAP2 POP PUSH2 0x1F50 DUP3 PUSH2 0x1F0F JUMP JUMPDEST PUSH1 0x20 DUP3 ADD SWAP1 POP SWAP2 SWAP1 POP JUMP JUMPDEST PUSH1 0x0 PUSH1 0x20 DUP3 ADD SWAP1 POP DUP2 DUP2 SUB PUSH1 0x0 DUP4 ADD MSTORE PUSH2 0x1F74 DUP2 PUSH2 0x1F38 JUMP JUMPDEST SWAP1 POP SWAP2 SWAP1 POP JUMP JUMPDEST PUSH32 0x4D757374206265206675747572652074696D6500000000000000000000000000 PUSH1 0x0 DUP3 ADD MSTORE POP JUMP JUMPDEST PUSH1 0x0 PUSH2 0x1FB1 PUSH1 0x13 DUP4 PUSH2 0x16D9 JUMP JUMPDEST SWAP2 POP PUSH2 0x1FBC DUP3 PUSH2 0x1F7B JUMP JUMPDEST PUSH1 0x20 DUP3 ADD SWAP1 POP SWAP2 SWAP1 POP JUMP JUMPDEST PUSH1 0x0 PUSH1 0x20 DUP3 ADD SWAP1 POP DUP2 DUP2 SUB PUSH1 0x0 DUP4 ADD MSTORE PUSH2 0x1FE0 DUP2 PUSH2 0x1FA4 JUMP JUMPDEST SWAP1 POP SWAP2 SWAP1 POP JUMP JUMPDEST PUSH32 0x4C6F636B20666565207265717569726564000000000000000000000000000000 PUSH1 0x0 DUP3 ADD MSTORE POP JUMP JUMPDEST PUSH1 0x0 PUSH2 0x201D PUSH1 0x11 DUP4 PUSH2 0x16D9 JUMP JUMPDEST SWAP2 POP PUSH2 0x2028 DUP3 PUSH2 0x1FE7 JUMP JUMPDEST PUSH1 0x20 DUP3 ADD SWAP1 POP SWAP2 SWAP1 POP JUMP JUMPDEST PUSH1 0x0 PUSH1 0x20 DUP3 ADD SWAP1 POP DUP2 DUP2 SUB PUSH1 0x0 DUP4 ADD MSTORE PUSH2 0x204C DUP2 PUSH2 0x2010 JUMP JUMPDEST SWAP1 POP SWAP2 SWAP1 POP JUMP JUMPDEST PUSH32 0x496E76616C696420726563697069656E74206164647265737300000000000000 PUSH1 0x0 DUP3 ADD MSTORE POP JUMP JUMPDEST PUSH1 0x0 PUSH2 0x2089 PUSH1 0x19 DUP4 PUSH2 0x16D9 JUMP JUMPDEST SWAP2 POP PUSH2 0x2094 DUP3 PUSH2 0x2053 JUMP JUMPDEST PUSH1 0x20 DUP3 ADD SWAP1 POP SWAP2 SWAP1 POP JUMP JUMPDEST PUSH1 0x0 PUSH1 0x20 DUP3 ADD SWAP1 POP DUP2 DUP2 SUB PUSH1 0x0 DUP4 ADD MSTORE PUSH2 0x20B8 DUP2 PUSH2 0x207C JUMP JUMPDEST SWAP1 POP SWAP2 SWAP1 POP JUMP JUMPDEST PUSH1 0x0 DUP2 PUSH1 0x60 SHL SWAP1 POP SWAP2 SWAP1 POP JUMP JUMPDEST PUSH1 0x0 PUSH2 0x20D7 DUP3 PUSH2 0x20BF JUMP JUMPDEST SWAP1 POP SWAP2 SWAP1 POP JUMP JUMPDEST PUSH1 0x0 PUSH2 0x20E9 DUP3 PUSH2 0x20CC JUMP JUMPDEST SWAP1 POP SWAP2 SWAP1 POP JUMP JUMPDEST PUSH2 0x2101 PUSH2 0x20FC DUP3 PUSH2 0x1583 JUMP JUMPDEST PUSH2 0x20DE JUMP JUMPDEST DUP3 MSTORE POP POP JUMP JUMPDEST PUSH1 0x0 DUP2 SWAP1 POP SWAP3 SWAP2 POP POP JUMP JUMPDEST PUSH1 0x0 PUSH2 0x211D DUP3 PUSH2 0x16CE JUMP JUMPDEST PUSH2 0x2127 DUP2 DUP6 PUSH2 0x2107 JUMP JUMPDEST SWAP4 POP PUSH2 0x2137 DUP2 DUP6 PUSH1 0x20 DUP7 ADD PUSH2 0x16EA JUMP JUMPDEST DUP1 DUP5 ADD SWAP2 POP POP SWAP3 SWAP2 POP POP JUMP JUMPDEST PUSH1 0x0 DUP2 SWAP1 POP SWAP2 SWAP1 POP JUMP JUMPDEST PUSH2 0x215E PUSH2 0x2159 DUP3 PUSH2 0x175E JUMP JUMPDEST PUSH2 0x2143 JUMP JUMPDEST DUP3 MSTORE POP POP JUMP JUMPDEST PUSH1 0x0 PUSH2 0x2170 DUP3 DUP9 PUSH2 0x20F0 JUMP JUMPDEST PUSH1 0x14 DUP3 ADD SWAP2 POP PUSH2 0x2180 DUP3 DUP8 PUSH2 0x20F0 JUMP JUMPDEST PUSH1 0x14 DUP3 ADD SWAP2 POP PUSH2 0x2190 DUP3 DUP7 PUSH2 0x2112 JUMP JUMPDEST SWAP2 POP PUSH2 0x219C DUP3 DUP6 PUSH2 0x214D JUMP JUMPDEST PUSH1 0x20 DUP3 ADD SWAP2 POP PUSH2 0x21AC DUP3 DUP5 PUSH2 0x214D JUMP JUMPDEST PUSH1 0x20 DUP3 ADD SWAP2 POP DUP2 SWAP1 POP SWAP7 SWAP6 POP POP POP POP POP POP JUMP JUMPDEST PUSH32 0x46696C6520616C7265616479206C6F636B656400000000000000000000000000 PUSH1 0x0 DUP3 ADD MSTORE POP JUMP JUMPDEST PUSH1 0x0 PUSH2 0x21F5 PUSH1 0x13 DUP4 PUSH2 0x16D9 JUMP JUMPDEST SWAP2 POP PUSH2 0x2200 DUP3 PUSH2 0x21BF JUMP JUMPDEST PUSH1 0x20 DUP3 ADD SWAP1 POP SWAP2 SWAP1 POP JUMP JUMPDEST PUSH1 0x0 PUSH1 0x20 DUP3 ADD SWAP1 POP DUP2 DUP2 SUB PUSH1 0x0 DUP4 ADD MSTORE PUSH2 0x2224 DUP2 PUSH2 0x21E8 JUMP JUMPDEST SWAP1 POP SWAP2 SWAP1 POP JUMP JUMPDEST PUSH1 0x0 PUSH1 0x20 PUSH1 0x1F DUP4 ADD DIV SWAP1 POP SWAP2 SWAP1 POP JUMP JUMPDEST PUSH1 0x0 DUP3 DUP3 SHL SWAP1 POP SWAP3 SWAP2 POP POP JUMP JUMPDEST PUSH1 0x0 PUSH1 0x8 DUP4 MUL PUSH2 0x2278 PUSH32 0xFFFFFFFFFFFFFFFFFFFFFFFFFFFFFFFFFFFFFFFFFFFFFFFFFFFFFFFFFFFFFFFF DUP3 PUSH2 0x223B JUMP JUMPDEST PUSH2 0x2282 DUP7 DUP4 PUSH2 0x223B JUMP JUMPDEST SWAP6 POP DUP1 NOT DUP5 AND SWAP4 POP DUP1 DUP7 AND DUP5 OR SWAP3 POP POP POP SWAP4 SWAP3 POP POP POP JUMP JUMPDEST PUSH1 0x0 DUP2 SWAP1 POP SWAP2 SWAP1 POP JUMP JUMPDEST PUSH1 0x0 PUSH2 0x22BF PUSH2 0x22BA PUSH2 0x22B5 DUP5 PUSH2 0x175E JUMP JUMPDEST PUSH2 0x229A JUMP JUMPDEST PUSH2 0x175E JUMP JUMPDEST SWAP1 POP SWAP2 SWAP1 POP JUMP JUMPDEST PUSH1 0x0 DUP2 SWAP1 POP SWAP2 SWAP1 POP JUMP JUMPDEST PUSH2 0x22D9 DUP4 PUSH2 0x22A4 JUMP JUMPDEST PUSH2 0x22ED PUSH2 0x22E5 DUP3 PUSH2 0x22C6 JUMP JUMPDEST DUP5 DUP5 SLOAD PUSH2 0x2248 JUMP JUMPDEST DUP3 SSTORE POP POP POP POP JUMP JUMPDEST PUSH1 0x0 SWAP1 JUMP JUMPDEST PUSH2 0x2302 PUSH2 0x22F5 JUMP JUMPDEST PUSH2 0x230D DUP2 DUP5 DUP5 PUSH2 0x22D0 JUMP JUMPDEST POP POP POP JUMP JUMPDEST JUMPDEST DUP2 DUP2 LT ISZERO PUSH2 0x2331 JUMPI PUSH2 0x2326 PUSH1 0x0 DUP3 PUSH2 0x22FA JUMP JUMPDEST PUSH1 0x1 DUP2 ADD SWAP1 POP PUSH2 0x2313 JUMP JUMPDEST POP POP JUMP JUMPDEST PUSH1 0x1F DUP3 GT ISZERO PUSH2 0x2376 JUMPI PUSH2 0x2347 DUP2 PUSH2 0x1D00 JUMP JUMPDEST PUSH2 0x2350 DUP5 PUSH2 0x222B JUMP JUMPDEST DUP2 ADD PUSH1 0x20 DUP6 LT ISZERO PUSH2 0x235F JUMPI DUP2 SWAP1 POP JUMPDEST PUSH2 0x2373 PUSH2 0x236B DUP6 PUSH2 0x222B JUMP JUMPDEST DUP4 ADD DUP3 PUSH2 0x2312 JUMP JUMPDEST POP POP JUMPDEST POP POP POP JUMP JUMPDEST PUSH1 0x0 DUP3 DUP3 SHR SWAP1 POP SWAP3 SWAP2 POP POP JUMP JUMPDEST PUSH1 0x0 PUSH2 0x2399 PUSH1 0x0 NOT DUP5 PUSH1 0x8 MUL PUSH2 0x237B JUMP JUMPDEST NOT DUP1 DUP4 AND SWAP2 POP POP SWAP3 SWAP2 POP POP JUMP JUMPDEST PUSH1 0x0 PUSH2 0x23B2 DUP4 DUP4 PUSH2 0x2388 JUMP JUMPDEST SWAP2 POP DUP3 PUSH1 0x2 MUL DUP3 OR SWAP1 POP SWAP3 SWAP2 POP POP JUMP JUMPDEST PUSH2 0x23CB DUP3 PUSH2 0x16CE JUMP JUMPDEST PUSH8 0xFFFFFFFFFFFFFFFF DUP2 GT ISZERO PUSH2 0x23E4 JUMPI PUSH2 0x23E3 PUSH2 0x196C JUMP JUMPDEST JUMPDEST PUSH2 0x23EE DUP3 SLOAD PUSH2 0x1CCF JUMP JUMPDEST PUSH2 0x23F9 DUP3 DUP3 DUP6 PUSH2 0x2335 JUMP JUMPDEST PUSH1 0x0 PUSH1 0x20 SWAP1 POP PUSH1 0x1F DUP4 GT PUSH1 0x1 DUP2 EQ PUSH2 0x242C JUMPI PUSH1 0x0 DUP5 ISZERO PUSH2 0x241A JUMPI DUP3 DUP8 ADD MLOAD SWAP1 POP JUMPDEST PUSH2 0x2424 DUP6 DUP3 PUSH2 0x23A6 JUMP JUMPDEST DUP7 SSTORE POP PUSH2 0x248C JUMP JUMPDEST PUSH1 0x1F NOT DUP5 AND PUSH2 0x243A DUP7 PUSH2 0x1D00 JUMP JUMPDEST PUSH1 0x0 JUMPDEST DUP3 DUP2 LT ISZERO PUSH2 0x2462 JUMPI DUP5 DUP10 ADD MLOAD DUP3 SSTORE PUSH1 0x1 DUP3 ADD SWAP2 POP PUSH1 0x20 DUP6 ADD SWAP5 POP PUSH1 0x20 DUP2 ADD SWAP1 POP PUSH2 0x243D JUMP JUMPDEST DUP7 DUP4 LT ISZERO PUSH2 0x247F JUMPI DUP5 DUP10 ADD MLOAD PUSH2 0x247B PUSH1 0x1F DUP10 AND DUP3 PUSH2 0x2388 JUMP JUMPDEST DUP4 SSTORE POP JUMPDEST PUSH1 0x1 PUSH1 0x2 DUP9 MUL ADD DUP9 SSTORE POP POP POP JUMPDEST POP POP POP POP POP POP JUMP JUMPDEST PUSH1 0x0 PUSH1 0x60 DUP3 ADD SWAP1 POP DUP2 DUP2 SUB PUSH1 0x0 DUP4 ADD MSTORE PUSH2 0x24AE DUP2 DUP7 PUSH2 0x1725 JUMP JUMPDEST SWAP1 POP PUSH2 0x24BD PUSH1 0x20 DUP4 ADD DUP6 PUSH2 0x1768 JUMP JUMPDEST PUSH2 0x24CA PUSH1 0x40 DUP4 ADD DUP5 PUSH2 0x1768 JUMP JUMPDEST SWAP5 SWAP4 POP POP POP POP JUMP JUMPDEST PUSH32 0x556E6C6F636B2074696D65206E6F742072656163686564000000000000000000 PUSH1 0x0 DUP3 ADD MSTORE POP JUMP JUMPDEST PUSH1 0x0 PUSH2 0x2508 PUSH1 0x17 DUP4 PUSH2 0x16D9 JUMP JUMPDEST SWAP2 POP PUSH2 0x2513 DUP3 PUSH2 0x24D2 JUMP JUMPDEST PUSH1 0x20 DUP3 ADD SWAP1 POP SWAP2 SWAP1 POP JUMP JUMPDEST PUSH1 0x0 PUSH1 0x20 DUP3 ADD SWAP1 POP DUP2 DUP2 SUB PUSH1 0x0 DUP4 ADD MSTORE PUSH2 0x2537 DUP2 PUSH2 0x24FB JUMP JUMPDEST SWAP1 POP SWAP2 SWAP1 POP JUMP INVALID LOG2 PUSH5 0x6970667358 0x22 SLT KECCAK256 COINBASE PUSH8 0x1B6DDFC0BFF734F 0xEF DELEGATECALL 0xE7 SHL 0x23 RETURN 0xCC PUSH2 0xD6DA BLOBHASH 0xB4 REVERT PUSH25 0xA617DADCE2C30AC064736F6C634300081800337372314D596B PUSH17 0x354D70727574533136666B4A50365A4E41 PUSH21 0x386164676E4D6F7A57686A00000000000000000000 "
        },
        "methodIdentifiers": {
          "confirmUnlock(bytes32)": "e55317b9",
          "getAllUserFiles(address)": "177f42f5",
          "getFileInfo(bytes32)": "52f7347b",
          "getRecipientFiles(address)": "18fa50a7",
          "getUserFiles(address)": "1fc37922",
          "lockFile(string,string,uint256,address)": "d1d90794",
          "lockedFiles(bytes32)": "554b3c20",
          "recipientFiles(address,uint256)": "d6c87288",
          "requestUnlock(bytes32)": "03d83328",
          "rollupAddress()": "5ec6a8df",
          "userFiles(address,uint256)": "718f38a6"
        }
      }
    }
  }
}