{
  "_format": "hh-sol-artifact-1",
  "contractName": "TimeOracleFileLocker",
  "sourceName": "contracts/TimeOracleFileLocker.sol",
  "abi": [
    {
      "anonymous": false,
      "inputs": [
        {
          "indexed": true,
          "internalType": "bytes32",
          "name": "fileId",
          "type": "bytes32"
        },
        {
          "indexed": true,
          "internalType": "address",
          "name": "owner",
          "type": "address"
        },
        {
          "indexed": true,
          "internalType": "address",
          "name": "recipient",
          "type": "address"
        },
        {
          "indexed": false,
          "internalType": "string",
          "name": "ipfsHash",
          "type": "string"
        },
        {
          "indexed": false,
          "internalType": "uint256",
          "name": "unlockTimestamp",
          "type": "uint256"
        },
        {
          "indexed": false,
          "internalType": "uint256",
          "name": "lockFee",
          "type": "uint256"
        }
      ],
      "name": "FileLocked",
      "type": "event"
    },
    {
      "anonymous": false,
      "inputs": [
        {
          "indexed": true,
          "internalType": "bytes32",
          "name": "fileId",
          "type": "bytes32"
        },
        {
          "indexed": true,
          "internalType": "address",
          "name": "owner",
          "type": "address"
        }
      ],
      "name": "FileUnlocked",
      "type": "event"
    },
    {
      "anonymous": false,
      "inputs": [
        {
          "indexed": true,
          "internalType": "bytes32",
          "name": "fileId",
          "type": "bytes32"
        },
        {
          "indexed": true,
          "internalType": "address",
          "name": "owner",
          "type": "address"
        },
        {
          "indexed": false,
          "internalType": "string",
          "name": "rollupAddress",
          "type": "string"
        },
        {
          "indexed": false,
          "internalType": "uint256",
          "name": "unlockTimestamp",
          "type": "uint256"
        }
      ],
      "name": "UnlockRequested",
      "type": "event"
    },
    {
      "inputs": [
        {
          "internalType": "bytes32",
          "name": "fileId",
          "type": "bytes32"
        }
      ],
      "name": "confirmUnlock",
      "outputs": [],
      "stateMutability": "payable",
      "type": "function"
    },
    {
      "inputs": [
        {
          "internalType": "address",
          "name": "user",
          "type": "address"
        }
      ],
      "name": "getAllUserFiles",
      "outputs": [
        {
          "internalType": "bytes32[]",
          "name": "",
          "type": "bytes32[]"
        }
      ],
      "stateMutability": "view",
      "type": "function"
    },
    {
      "inputs": [
        {
          "internalType": "bytes32",
          "name": "fileId",
          "type": "bytes32"
        }
      ],
      "name": "getFileInfo",
      "outputs": [
        {
          "internalType": "string",
          "name": "ipfsHash",
          "type": "string"
        },
        {
          "internalType": "string",
          "name": "fileName",
          "type": "string"
        },
        {
          "internalType": "uint256",
          "name": "unlockTimestamp",
          "type": "uint256"
        },
        {
          "internalType": "address",
          "name": "owner",
          "type": "address"
        },
        {
          "internalType": "address",
          "name": "recipient",
          "type": "address"
        },
        {
          "internalType": "uint256",
          "name": "lockFee",
          "type": "uint256"
        },
        {
          "internalType": "bool",
          "name": "isUnlocked",
          "type": "bool"
        }
      ],
      "stateMutability": "view",
      "type": "function"
    },
    {
      "inputs": [
        {
          "internalType": "address",
          "name": "recipient",
          "type": "address"
        }
      ],
      "name": "getRecipientFiles",
      "outputs": [
        {
          "internalType": "bytes32[]",
          "name": "",
          "type": "bytes32[]"
        }
      ],
      "stateMutability": "view",
      "type": "function"
    },
    {
      "inputs": [
        {
          "internalType": "address",
          "name": "user",
          "type": "address"
        }
      ],
      "name": "getUserFiles",
      "outputs": [
        {
          "internalType": "bytes32[]",
          "name": "",
          "type": "bytes32[]"
        }
      ],
      "stateMutability": "view",
      "type": "function"
    },
    {
      "inputs": [
        {
          "internalType": "string",
          "name": "ipfsHash",
          "type": "string"
        },
        {
          "internalType": "string",
          "name": "fileName",
          "type": "string"
        },
        {
          "internalType": "uint256",
          "name": "unlockTimestamp",
          "type": "uint256"
        },
        {
          "internalType": "address",
          "name": "recipient",
          "type": "address"
        }
      ],
      "name": "lockFile",
      "outputs": [
        {
          "internalType": "bytes32",
          "name": "fileId",
          "type": "bytes32"
        }
      ],
      "stateMutability": "payable",
      "type": "function"
    },
    {
      "inputs": [
        {
          "internalType": "bytes32",
          "name": "",
          "type": "bytes32"
        }
      ],
      "name": "lockedFiles",
      "outputs": [
        {
          "internalType": "string",
          "name": "ipfsHash",
          "type": "string"
        },
        {
          "internalType": "string",
          "name": "fileName",
          "type": "string"
        },
        {
          "internalType": "uint256",
          "name": "unlockTimestamp",
          "type": "uint256"
        },
        {
          "internalType": "address",
          "name": "owner",
          "type": "address"
        },
        {
          "internalType": "address",
          "name": "recipient",
          "type": "address"
        },
        {
          "internalType": "uint256",
          "name": "lockFee",
          "type": "uint256"
        },
        {
          "internalType": "bool",
          "name": "isUnlocked",
          "type": "bool"
        },
        {
          "internalType": "bool",
          "name": "exists",
          "type": "bool"
        }
      ],
      "stateMutability": "view",
      "type": "function"
    },
    {
      "inputs": [
        {
          "internalType": "address",
          "name": "",
          "type": "address"
        },
        {
          "internalType": "uint256",
          "name": "",
          "type": "uint256"
        }
      ],
      "name": "recipientFiles",
      "outputs": [
        {
          "internalType": "bytes32",
          "name": "",
          "type": "bytes32"
        }
      ],
      "stateMutability": "view",
      "type": "function"
    },
    {
      "inputs": [
        {
          "internalType": "bytes32",
          "name": "fileId",
          "type": "bytes32"
        }
      ],
      "name": "requestUnlock",
      "outputs": [],
      "stateMutability": "nonpayable",
      "type": "function"
    },
    {
      "inputs": [],
      "name": "rollupAddress",
      "outputs": [
        {
          "internalType": "string",
          "name": "",
          "type": "string"
        }
      ],
      "stateMutability": "view",
      "type": "function"
    },
    {
      "inputs": [
        {
          "internalType": "address",
          "name": "",
          "type": "address"
        },
        {
          "internalType": "uint256",
          "name": "",
          "type": "uint256"
        }
      ],
      "name": "userFiles",
      "outputs": [
        {
          "internalType": "bytes32",
          "name": "",
          "type": "bytes32"
        }
      ],
      "stateMutability": "view",
      "type": "function"
    }
  ],
  "bytecode": "0x60806040526040518060600160405280602481526020016200292860249139600390816200002e9190620002bd565b503480156200003c57600080fd5b50620003a4565b600081519050919050565b7f4e487b7100000000000000000000000000000000000000000000000000000000600052604160045260246000fd5b7f4e487b7100000000000000000000000000000000000000000000000000000000600052602260045260246000fd5b60006002820490506001821680620000c557607f821691505b602082108103620000db57620000da6200007d565b5b50919050565b60008190508160005260206000209050919050565b60006020601f8301049050919050565b600082821b905092915050565b600060088302620001457fffffffffffffffffffffffffffffffffffffffffffffffffffffffffffffffff8262000106565b62000151868362000106565b95508019841693508086168417925050509392505050565b6000819050919050565b6000819050919050565b60006200019e62000198620001928462000169565b62000173565b62000169565b9050919050565b6000819050919050565b620001ba836200017d565b620001d2620001c982620001a5565b84845462000113565b825550505050565b600090565b620001e9620001da565b620001f6818484620001af565b505050565b5b818110156200021e5762000212600082620001df565b600181019050620001fc565b5050565b601f8211156200026d576200023781620000e1565b6200024284620000f6565b8101602085101562000252578190505b6200026a6200026185620000f6565b830182620001fb565b50505b505050565b600082821c905092915050565b6000620002926000198460080262000272565b1980831691505092915050565b6000620002ad83836200027f565b9150826002028217905092915050565b620002c88262000043565b67ffffffffffffffff811115620002e457620002e36200004e565b5b620002f08254620000ac565b620002fd82828562000222565b600060209050601f83116001811462000335576000841562000320578287015190505b6200032c85826200029f565b8655506200039c565b601f1984166200034586620000e1565b60005b828110156200036f5784890151825560018201915060208501945060208101905062000348565b868310156200038f57848901516200038b601f8916826200027f565b8355505b6001600288020188555050505b505050505050565b61257480620003b46000396000f3fe60806040526004361061009c5760003560e01c8063554b3c2011610064578063554b3c20146101c45780635ec6a8df14610208578063718f38a614610233578063d1d9079414610270578063d6c87288146102a0578063e55317b9146102dd5761009c565b806303d83328146100a1578063177f42f5146100ca57806318fa50a7146101075780631fc379221461014457806352f7347b14610181575b600080fd5b3480156100ad57600080fd5b506100c860048036038101906100c39190611536565b6102f9565b005b3480156100d657600080fd5b506100f160048036038101906100ec91906115c1565b6104f8565b6040516100fe91906116ac565b60405180910390f35b34801561011357600080fd5b5061012e600480360381019061012991906115c1565b610749565b60405161013b91906116ac565b60405180910390f35b34801561015057600080fd5b5061016b600480360381019061016691906115c1565b6107e0565b60405161017891906116ac565b60405180910390f35b34801561018d57600080fd5b506101a860048036038101906101a39190611536565b610877565b6040516101bb97969594939291906117a1565b60405180910390f35b3480156101d057600080fd5b506101eb60048036038101906101e69190611536565b610a88565b6040516101ff98979695949392919061181e565b60405180910390f35b34801561021457600080fd5b5061021d610c3a565b60405161022a91906118aa565b60405180910390f35b34801561023f57600080fd5b5061025a600480360381019061025591906118f8565b610cc8565b6040516102679190611947565b60405180910390f35b61028a60048036038101906102859190611a97565b610cf9565b6040516102979190611947565b60405180910390f35b3480156102ac57600080fd5b506102c760048036038101906102c291906118f8565b6111d7565b6040516102d49190611947565b60405180910390f35b6102f760048036038101906102f29190611536565b611208565b005b600080600083815260200190815260200160002090508060060160019054906101000a900460ff16610360576040517f08c379a000000000000000000000000000000000000000000000000000000000815260040161035790611b82565b60405180910390fd5b3373ffffffffffffffffffffffffffffffffffffffff168160030160009054906101000a900473ffffffffffffffffffffffffffffffffffffffff1673ffffffffffffffffffffffffffffffffffffffff16148061040d57503373ffffffffffffffffffffffffffffffffffffffff168160040160009054906101000a900473ffffffffffffffffffffffffffffffffffffffff1673ffffffffffffffffffffffffffffffffffffffff16145b61044c576040517f08c379a000000000000000000000000000000000000000000000000000000000815260040161044390611c14565b60405180910390fd5b8060060160009054906101000a900460ff161561049e576040517f08c379a000000000000000000000000000000000000000000000000000000000815260040161049590611c80565b60405180910390fd5b3373ffffffffffffffffffffffffffffffffffffffff16827fc39f7730afe58e8228d760343fcef8d51db91ba1f8bd9fa853bfbf510b3393e1600384600201546040516104ec929190611d99565b60405180910390a35050565b60606000600160008473ffffffffffffffffffffffffffffffffffffffff1673ffffffffffffffffffffffffffffffffffffffff16815260200190815260200160002080548060200260200160405190810160405280929190818152602001828054801561058557602002820191906000526020600020905b815481526020019060010190808311610571575b505050505090506000600260008573ffffffffffffffffffffffffffffffffffffffff1673ffffffffffffffffffffffffffffffffffffffff16815260200190815260200160002080548060200260200160405190810160405280929190818152602001828054801561061757602002820191906000526020600020905b815481526020019060010190808311610603575b5050505050905060008151835161062e9190611df8565b67ffffffffffffffff8111156106475761064661196c565b5b6040519080825280602002602001820160405280156106755781602001602082028036833780820191505090505b5090506000805b84518110156106da5784818151811061069857610697611e2c565b5b60200260200101518383815181106106b3576106b2611e2c565b5b60200260200101818152505081806106ca90611e5b565b925050808060010191505061067c565b5060005b835181101561073c578381815181106106fa576106f9611e2c565b5b602002602001015183838151811061071557610714611e2c565b5b602002602001018181525050818061072c90611e5b565b92505080806001019150506106de565b5081945050505050919050565b6060600260008373ffffffffffffffffffffffffffffffffffffffff1673ffffffffffffffffffffffffffffffffffffffff1681526020019081526020016000208054806020026020016040519081016040528092919081815260200182805480156107d457602002820191906000526020600020905b8154815260200190600101908083116107c0575b50505050509050919050565b6060600160008373ffffffffffffffffffffffffffffffffffffffff1673ffffffffffffffffffffffffffffffffffffffff16815260200190815260200160002080548060200260200160405190810160405280929190818152602001828054801561086b57602002820191906000526020600020905b815481526020019060010190808311610857575b50505050509050919050565b6060806000806000806000806000808a815260200190815260200160002090508060060160019054906101000a900460ff166108e8576040517f08c379a00000000000000000000000000000000000000000000000000000000081526004016108df90611b82565b60405180910390fd5b806000018160010182600201548360030160009054906101000a900473ffffffffffffffffffffffffffffffffffffffff168460040160009054906101000a900473ffffffffffffffffffffffffffffffffffffffff1685600501548660060160009054906101000a900460ff1686805461096290611ccf565b80601f016020809104026020016040519081016040528092919081815260200182805461098e90611ccf565b80156109db5780601f106109b0576101008083540402835291602001916109db565b820191906000526020600020905b8154815290600101906020018083116109be57829003601f168201915b505050505096508580546109ee90611ccf565b80601f0160208091040260200160405190810160405280929190818152602001828054610a1a90611ccf565b8015610a675780601f10610a3c57610100808354040283529160200191610a67565b820191906000526020600020905b815481529060010190602001808311610a4a57829003601f168201915b50505050509550975097509750975097509750975050919395979092949650565b6000602052806000526040600020600091509050806000018054610aab90611ccf565b80601f0160208091040260200160405190810160405280929190818152602001828054610ad790611ccf565b8015610b245780601f10610af957610100808354040283529160200191610b24565b820191906000526020600020905b815481529060010190602001808311610b0757829003601f168201915b505050505090806001018054610b3990611ccf565b80601f0160208091040260200160405190810160405280929190818152602001828054610b6590611ccf565b8015610bb25780601f10610b8757610100808354040283529160200191610bb2565b820191906000526020600020905b815481529060010190602001808311610b9557829003601f168201915b5050505050908060020154908060030160009054906101000a900473ffffffffffffffffffffffffffffffffffffffff16908060040160009054906101000a900473ffffffffffffffffffffffffffffffffffffffff16908060050154908060060160009054906101000a900460ff16908060060160019054906101000a900460ff16905088565b60038054610c4790611ccf565b80601f0160208091040260200160405190810160405280929190818152602001828054610c7390611ccf565b8015610cc05780601f10610c9557610100808354040283529160200191610cc0565b820191906000526020600020905b815481529060010190602001808311610ca357829003601f168201915b505050505081565b60016020528160005260406000208181548110610ce457600080fd5b90600052602060002001600091509150505481565b600080855111610d3e576040517f08c379a0000000000000000000000000000000000000000000000000000000008152600401610d3590611eef565b60405180910390fd5b6000845111610d82576040517f08c379a0000000000000000000000000000000000000000000000000000000008152600401610d7990611f5b565b60405180910390fd5b428311610dc4576040517f08c379a0000000000000000000000000000000000000000000000000000000008152600401610dbb90611fc7565b60405180910390fd5b60003411610e07576040517f08c379a0000000000000000000000000000000000000000000000000000000008152600401610dfe90612033565b60405180910390fd5b600073ffffffffffffffffffffffffffffffffffffffff168273ffffffffffffffffffffffffffffffffffffffff1603610e76576040517f08c379a0000000000000000000000000000000000000000000000000000000008152600401610e6d9061209f565b60405180910390fd5b3382868542604051602001610e8f959493929190612164565b60405160208183030381529060405280519060200120905060008082815260200190815260200160002060060160019054906101000a900460ff1615610f0a576040517f08c379a0000000000000000000000000000000000000000000000000000000008152600401610f019061220b565b60405180910390fd5b6040518061010001604052808681526020018581526020018481526020013373ffffffffffffffffffffffffffffffffffffffff1681526020018373ffffffffffffffffffffffffffffffffffffffff168152602001348152602001600015158152602001600115158152506000808381526020019081526020016000206000820151816000019081610f9d91906123c2565b506020820151816001019081610fb391906123c2565b506040820151816002015560608201518160030160006101000a81548173ffffffffffffffffffffffffffffffffffffffff021916908373ffffffffffffffffffffffffffffffffffffffff16021790555060808201518160040160006101000a81548173ffffffffffffffffffffffffffffffffffffffff021916908373ffffffffffffffffffffffffffffffffffffffff16021790555060a0820151816005015560c08201518160060160006101000a81548160ff02191690831515021790555060e08201518160060160016101000a81548160ff021916908315150217905550905050600160003373ffffffffffffffffffffffffffffffffffffffff1673ffffffffffffffffffffffffffffffffffffffff168152602001908152602001600020819080600181540180825580915050600190039060005260206000200160009091909190915055600260008373ffffffffffffffffffffffffffffffffffffffff1673ffffffffffffffffffffffffffffffffffffffff1681526020019081526020016000208190806001815401808255809150506001900390600052602060002001600090919091909150558173ffffffffffffffffffffffffffffffffffffffff163373ffffffffffffffffffffffffffffffffffffffff16827f0d80f07f08f33da95c0e90a3767d38047ef1d66f56058e94b7100d54c72e36bb8887346040516111c793929190612494565b60405180910390a4949350505050565b600260205281600052604060002081815481106111f357600080fd5b90600052602060002001600091509150505481565b600080600083815260200190815260200160002090508060060160019054906101000a900460ff1661126f576040517f08c379a000000000000000000000000000000000000000000000000000000000815260040161126690611b82565b60405180910390fd5b3373ffffffffffffffffffffffffffffffffffffffff168160030160009054906101000a900473ffffffffffffffffffffffffffffffffffffffff1673ffffffffffffffffffffffffffffffffffffffff16148061131c57503373ffffffffffffffffffffffffffffffffffffffff168160040160009054906101000a900473ffffffffffffffffffffffffffffffffffffffff1673ffffffffffffffffffffffffffffffffffffffff16145b61135b576040517f08c379a000000000000000000000000000000000000000000000000000000000815260040161135290611c14565b60405180910390fd5b8060060160009054906101000a900460ff16156113ad576040517f08c379a00000000000000000000000000000000000000000000000000000000081526004016113a490611c80565b60405180910390fd5b80600201544210156113f4576040517f08c379a00000000000000000000000000000000000000000000000000000000081526004016113eb9061251e565b60405180910390fd5b60018160060160006101000a81548160ff0219169083151502179055508060030160009054906101000a900473ffffffffffffffffffffffffffffffffffffffff1673ffffffffffffffffffffffffffffffffffffffff166108fc82600501549081150290604051600060405180830381858888f1935050505015801561147f573d6000803e3d6000fd5b508060030160009054906101000a900473ffffffffffffffffffffffffffffffffffffffff1673ffffffffffffffffffffffffffffffffffffffff16827fe4ed238330caae54cb454153824eb4d83b179b43554fc8d06dcbfd8c7f72cad160405160405180910390a35050565b6000604051905090565b600080fd5b600080fd5b6000819050919050565b61151381611500565b811461151e57600080fd5b50565b6000813590506115308161150a565b92915050565b60006020828403121561154c5761154b6114f6565b5b600061155a84828501611521565b91505092915050565b600073ffffffffffffffffffffffffffffffffffffffff82169050919050565b600061158e82611563565b9050919050565b61159e81611583565b81146115a957600080fd5b50565b6000813590506115bb81611595565b92915050565b6000602082840312156115d7576115d66114f6565b5b60006115e5848285016115ac565b91505092915050565b600081519050919050565b600082825260208201905092915050565b6000819050602082019050919050565b61162381611500565b82525050565b6000611635838361161a565b60208301905092915050565b6000602082019050919050565b6000611659826115ee565b61166381856115f9565b935061166e8361160a565b8060005b8381101561169f5781516116868882611629565b975061169183611641565b925050600181019050611672565b5085935050505092915050565b600060208201905081810360008301526116c6818461164e565b905092915050565b600081519050919050565b600082825260208201905092915050565b60005b838110156117085780820151818401526020810190506116ed565b60008484015250505050565b6000601f19601f8301169050919050565b6000611730826116ce565b61173a81856116d9565b935061174a8185602086016116ea565b61175381611714565b840191505092915050565b6000819050919050565b6117718161175e565b82525050565b61178081611583565b82525050565b60008115159050919050565b61179b81611786565b82525050565b600060e08201905081810360008301526117bb818a611725565b905081810360208301526117cf8189611725565b90506117de6040830188611768565b6117eb6060830187611777565b6117f86080830186611777565b61180560a0830185611768565b61181260c0830184611792565b98975050505050505050565b6000610100820190508181036000830152611839818b611725565b9050818103602083015261184d818a611725565b905061185c6040830189611768565b6118696060830188611777565b6118766080830187611777565b61188360a0830186611768565b61189060c0830185611792565b61189d60e0830184611792565b9998505050505050505050565b600060208201905081810360008301526118c48184611725565b905092915050565b6118d58161175e565b81146118e057600080fd5b50565b6000813590506118f2816118cc565b92915050565b6000806040838503121561190f5761190e6114f6565b5b600061191d858286016115ac565b925050602061192e858286016118e3565b9150509250929050565b61194181611500565b82525050565b600060208201905061195c6000830184611938565b92915050565b600080fd5b600080fd5b7f4e487b7100000000000000000000000000000000000000000000000000000000600052604160045260246000fd5b6119a482611714565b810181811067ffffffffffffffff821117156119c3576119c261196c565b5b80604052505050565b60006119d66114ec565b90506119e2828261199b565b919050565b600067ffffffffffffffff821115611a0257611a0161196c565b5b611a0b82611714565b9050602081019050919050565b82818337600083830152505050565b6000611a3a611a35846119e7565b6119cc565b905082815260208101848484011115611a5657611a55611967565b5b611a61848285611a18565b509392505050565b600082601f830112611a7e57611a7d611962565b5b8135611a8e848260208601611a27565b91505092915050565b60008060008060808587031215611ab157611ab06114f6565b5b600085013567ffffffffffffffff811115611acf57611ace6114fb565b5b611adb87828801611a69565b945050602085013567ffffffffffffffff811115611afc57611afb6114fb565b5b611b0887828801611a69565b9350506040611b19878288016118e3565b9250506060611b2a878288016115ac565b91505092959194509250565b7f46696c6520646f65736e27742065786973740000000000000000000000000000600082015250565b6000611b6c6012836116d9565b9150611b7782611b36565b602082019050919050565b60006020820190508181036000830152611b9b81611b5f565b9050919050565b7f4f6e6c79206f776e6572206f7220726563697069656e742063616e20756e6c6f60008201527f636b000000000000000000000000000000000000000000000000000000000000602082015250565b6000611bfe6022836116d9565b9150611c0982611ba2565b604082019050919050565b60006020820190508181036000830152611c2d81611bf1565b9050919050565b7f416c726561647920756e6c6f636b656400000000000000000000000000000000600082015250565b6000611c6a6010836116d9565b9150611c7582611c34565b602082019050919050565b60006020820190508181036000830152611c9981611c5d565b9050919050565b7f4e487b7100000000000000000000000000000000000000000000000000000000600052602260045260246000fd5b60006002820490506001821680611ce757607f821691505b602082108103611cfa57611cf9611ca0565b5b50919050565b60008190508160005260206000209050919050565b60008154611d2281611ccf565b611d2c81866116d9565b94506001821660008114611d475760018114611d5d57611d90565b60ff198316865281151560200286019350611d90565b611d6685611d00565b60005b83811015611d8857815481890152600182019150602081019050611d69565b808801955050505b50505092915050565b60006040820190508181036000830152611db38185611d15565b9050611dc26020830184611768565b9392505050565b7f4e487b7100000000000000000000000000000000000000000000000000000000600052601160045260246000fd5b6000611e038261175e565b9150611e0e8361175e565b9250828201905080821115611e2657611e25611dc9565b5b92915050565b7f4e487b7100000000000000000000000000000000000000000000000000000000600052603260045260246000fd5b6000611e668261175e565b91507fffffffffffffffffffffffffffffffffffffffffffffffffffffffffffffffff8203611e9857611e97611dc9565b5b600182019050919050565b7f4950465320686173682072657175697265640000000000000000000000000000600082015250565b6000611ed96012836116d9565b9150611ee482611ea3565b602082019050919050565b60006020820190508181036000830152611f0881611ecc565b9050919050565b7f46696c65206e616d652072657175697265640000000000000000000000000000600082015250565b6000611f456012836116d9565b9150611f5082611f0f565b602082019050919050565b60006020820190508181036000830152611f7481611f38565b9050919050565b7f4d757374206265206675747572652074696d6500000000000000000000000000600082015250565b6000611fb16013836116d9565b9150611fbc82611f7b565b602082019050919050565b60006020820190508181036000830152611fe081611fa4565b9050919050565b7f4c6f636b20666565207265717569726564000000000000000000000000000000600082015250565b600061201d6011836116d9565b915061202882611fe7565b602082019050919050565b6000602082019050818103600083015261204c81612010565b9050919050565b7f496e76616c696420726563697069656e74206164647265737300000000000000600082015250565b60006120896019836116d9565b915061209482612053565b602082019050919050565b600060208201905081810360008301526120b88161207c565b9050919050565b60008160601b9050919050565b60006120d7826120bf565b9050919050565b60006120e9826120cc565b9050919050565b6121016120fc82611583565b6120de565b82525050565b600081905092915050565b600061211d826116ce565b6121278185612107565b93506121378185602086016116ea565b80840191505092915050565b6000819050919050565b61215e6121598261175e565b612143565b82525050565b600061217082886120f0565b60148201915061218082876120f0565b6014820191506121908286612112565b915061219c828561214d565b6020820191506121ac828461214d565b6020820191508190509695505050505050565b7f46696c6520616c7265616479206c6f636b656400000000000000000000000000600082015250565b60006121f56013836116d9565b9150612200826121bf565b602082019050919050565b60006020820190508181036000830152612224816121e8565b9050919050565b60006020601f8301049050919050565b600082821b905092915050565b6000600883026122787fffffffffffffffffffffffffffffffffffffffffffffffffffffffffffffffff8261223b565b612282868361223b565b95508019841693508086168417925050509392505050565b6000819050919050565b60006122bf6122ba6122b58461175e565b61229a565b61175e565b9050919050565b6000819050919050565b6122d9836122a4565b6122ed6122e5826122c6565b848454612248565b825550505050565b600090565b6123026122f5565b61230d8184846122d0565b505050565b5b81811015612331576123266000826122fa565b600181019050612313565b5050565b601f8211156123765761234781611d00565b6123508461222b565b8101602085101561235f578190505b61237361236b8561222b565b830182612312565b50505b505050565b600082821c905092915050565b60006123996000198460080261237b565b1980831691505092915050565b60006123b28383612388565b9150826002028217905092915050565b6123cb826116ce565b67ffffffffffffffff8111156123e4576123e361196c565b5b6123ee8254611ccf565b6123f9828285612335565b600060209050601f83116001811461242c576000841561241a578287015190505b61242485826123a6565b86555061248c565b601f19841661243a86611d00565b60005b828110156124625784890151825560018201915060208501945060208101905061243d565b8683101561247f578489015161247b601f891682612388565b8355505b6001600288020188555050505b505050505050565b600060608201905081810360008301526124ae8186611725565b90506124bd6020830185611768565b6124ca6040830184611768565b949350505050565b7f556e6c6f636b2074696d65206e6f742072656163686564000000000000000000600082015250565b60006125086017836116d9565b9150612513826124d2565b602082019050919050565b60006020820190508181036000830152612537816124fb565b905091905056fea2646970667358221220416701b6ddfc0bff734feff4e71b23f3cc61d6da49b4fd78a617dadce2c30ac064736f6c634300081800337372314d596b70354d70727574533136666b4a50365a4e4174386164676e4d6f7a57686a",
  "linkReferences": {},
  "deployedLinkReferences": {}
}